:020000040000FA
:10000000503D0010FD010000050200000702000045
:10001000090200000B0200000D02000000000000B9
:100020000000000000000000000000006903000064
:100030001102000000000000E10300001D040000A8
:100040001702000017020000811E000017020000C6
:10005000170200001702000017020000170200003C
:10006000170200001702000017020000170200002C
:10007000170200002D16000017020000151A0000DC
:10008000170200001702000017020000170200000C
:1000900017020000170200001702000017020000FC
:1000A0001702000017020000510C000017020000A8
:1000B00017020000170200001702000017020000DC
:1000C00017020000170200001702000000F002F8FB
:1000D00000F081F814A696E8000CB244B344DA4567
:1000E00001D100F078F8BAE80F000FA696E83000CA
:1000F000A5EB040504EB0607AAEB0704A7F101072B
:100100004FEA15154FEA3414A4F10104AC4201D3AF
:1001100000F061F813F0010F18BFFB1A43F0010360
:1001200000F001F8DBE71847585F0000785F000037
:10013000103A24BF78C878C1FAD8520724BF30C813
:1001400030C144BF04680C60704700007047000075
:100150000023002400250026103A28BF78C1FBD8D0
:10016000520728BF30C148BF0B6070476E2900F0AE
:100170003D82702900F00A83692900F0FB8164291F
:1001800000F0F881752900F0F5816F2900F0A08258
:10019000782900F0EE820368DB0928BF41F0800176
:1001A000632900F07D84732900F08284E32900F044
:1001B0008D84F32900F09284002070471FB500F071
:1001C000E2FC04000020002104F07CFB401C606085
:1001D0001FBD10B510BD00F0B1FC1146FFF7EEFFDA
:1001E0000FB401F071FE0FBC02F050FD00F0D0FC26
:1001F00003B4FFF7EEFF03BC00F014FD094880478D
:1002000009480047FEE7FEE7FEE7FEE7FEE7FEE7F8
:10021000FEE7FEE7FEE7FEE704480549034A054B13
:1002200070470000A11D0000CD000000503B0010F1
:10023000503D0010503B001000487047CC000010AB
:100240000FB41CB50C0007AA009007D04142A14290
:1002500002D32044401E01E04FF0FF30074B7B44A7
:1002600069460190069800F0F6FB0020002C01D0B2
:10027000009908701CBC5DF814FB00001B0800000E
:1002800070B5044685690068C10601D5302600E0D6
:100290002026C00707D070BDD4E901213046904721
:1002A000206A401C20626D1EF6D570BD70B50446F4
:1002B00085690078C00707D170BDD4E901212020ED
:1002C0009047206A401C20626D1EF6D570BD0968FB
:1002D0004A0501D540B27047C905FCD500B2704748
:1002E00009684A0501D5C0B27047C905FCD580B27E
:1002F00070477047704770477047FEE7FFFFFFFF8A
:1003000080F309887047EFF309807047684680F3EF
:10031000098804480078C00714BF0220032080F336
:1003200014887047DD5E0000DFF818C0EFF3058326
:100330001B0618BF6047EFF31483DB0708BF604755
:1003400000DF7047ED360000DFF818C0EFF30583DB
:100350001B0618BF6047EFF31483DB0708BF604735
:1003600000DF7047D1380000EFF30980816911F890
:10037000021CF1B990E80F10E047EFF3098C8CE80C
:100380000700144B93E8060091420FD039B12CE9D5
:10039000F00FC1F828C00CB403F07AFE0CBC1A6050
:1003A000D2F828C0BCE8F00F8CF309886FF0020E79
:1003B000704710B5084A1268914209D8074C54F8A2
:1003C000214090E80F10A047EFF3098C8CE80F0054
:1003D00010BD00000C000010E4320000E432000008
:1003E00003F0ECFC0C4B93E80600914210D0EFF3C5
:1003F000098C2CE9F00FC1F828C00CB403F048FEBA
:100400000CBC1A60D2F828C0BCE8F00F8CF3098845
:100410006FF0020E704700000C00001003F000FFA8
:10042000E0E7000003F04EF903F0FAFEDAE700001F
:1004300053EA020C00F069802DE9F04B4FF0000602
:10044000002B1FBFB3FA83F503FA05F424FA05F66F
:100450005E4012BF1643B2FA82F502FA05F4C5F106
:1004600020051EBF22FA05FC44EA0C04203556EA9A
:10047000044C4FEA144418BF641C4FF000084FF0BE
:100480000009904271EB030C39D3002919BFB1FA6E
:1004900081F701FA07F6B0FA80F700FA07F6C7F11C
:1004A00020071EBF20FA07FC46EA0C062037B6FBE1
:1004B000F4FCA7EB0507103F07F01F0BCBF120065C
:1004C0002CFA06F60CFA0BFB44BFB3460026202F8D
:1004D000A4BF5E464FF0000B5BEA060C08BF4FF06E
:1004E000010B19EB0B0948EB0608ABFB027C06FB82
:1004F00002CC0BFB03CCC01B71EB0C01C1E70B461C
:10050000024641464846BDE8F08B13B5084318BF84
:100510004FF0FF300146AFF30080BDE81C4070474C
:1005200070B50C460546012A05D02878800600D50E
:10053000EA69002302E0012305E05B1C934202D23A
:10054000E05C0028F9D1A869E618C01AA861286AF9
:10055000184428622846FFF793FE04E0D5E90121FC
:1005600014F8010B9047B442F8D32846FFF79EFEDB
:1005700070BD00002DE9F041064600241068752981
:10058000314616A510D0FFF7A2FE002802DA40423D
:1005900013A507E031688A0701D512A502E04907D3
:1005A00004D511A5012401E0FFF79AFE00210A22DB
:1005B00006F1240709E0B0FBF2FCB0FBF2F302FB0A
:1005C0001C00303078541846491C0028F3D12346CB
:1005D0002A463046BDE8F04100F0DFB900000000D7
:1005E0002D0000002B0000002000000011680268B0
:1005F000006A530501D508700AE0D30501D50880CB
:1006000006E0130603D5C217C1E9000200E0086046
:10061000012070472DE9FF5F15468A460446DFF842
:10062000AC80F8440027D8E900103E46CDE9001020
:1006300010E03AF816106A4602A800F053FA411C7E
:1006400007D02178890603D5E269391891420DD87F
:100650000744761C2078800602D5E069B84205DDA3
:10066000AE42E6DB3AF816000028E2D1A069C01BD2
:10067000A0612046FFF704FED8E90010CDE9001084
:10068000002017E03AF818106A4602A800F02AFA8B
:10069000B0F1FF3F81460BD000250DF1080B05E0BE
:1006A000D4E901211BF8050090476D1C4D45F7D397
:1006B00008F10100B0428046E4DB206A3844206241
:1006C0002046FFF7F3FDBDE8FF9F0000CA4200008F
:1006D00070B5044621461068FFF702FE002104F1C0
:1006E000240505E000F007023032C0086A54491CB6
:1006F0000028F7D12068002308A2050708D500F0DC
:100700002000084304D0E069012305A2401EE061F7
:100710002046BDE8704000F040B900000000000035
:1007200030000000F0B40D460188090502D51B4CCD
:100730007C4402E0194C7C440E34002100F1240377
:1007400005E002F00F061209A65D5E54491C002A5E
:10075000F7D102780023120704D5702D06D009B115
:10076000022311342246F0BC00F017B901231034E3
:10077000F8E770B504460D4621461068FFF7B0FD56
:10078000024629462046BDE87040CBE70368126860
:1007900043F0200303600823C361C3E7C4410000A2
:1007A0002DE9F05F894604464FF0000ADFF874B186
:1007B000FB44C0F820A02046E1688847002874D098
:1007C000252806D0D4E901219047206A401C2062E8
:1007D000F1E700265F462046E16888472028054665
:1007E00007DB312D05D2781910F8200C08B106432B
:1007F000F1E7B00701D526F00406C4F81CA00027D5
:10080000C4F818A02A2D09D0284602F090FD38B36C
:1008100004EB8708303DC8F8185019E059F8041B5C
:10082000204604EB87029161E1688847012F054665
:1008300018D1E069002820DA26F020061DE0D8F85B
:10084000180000EB800005EB40003038C8F81800B5
:100850002046E1688847054602F069FD0028EED190
:10086000012F0AD02E2D08D12046E16888477F1C31
:100870000546022F46F02006C4DBA069002803DAF3
:10088000404246F00106A061F00701D026F01006B4
:100890006C2D0BD0682D09D04C2D39D06A2D35D058
:1008A000742D35D07A2D33D016E038E0E1682F462C
:1008B00020468847B842054609D16C2F26D04FF410
:1008C0008060E168064320468847054604E06C2FB7
:1008D0001AD04FF4807006430DB3A5F141001928DA
:1008E00002D8203546F400664A462946204626604E
:1008F0004E46FFF73BFC80B101280BD0F61D26F0D9
:10090000070000F1080956E74020E4E78020D8E717
:100910000020D6E706F104094DE7284652E7206A91
:10092000BDE8F09F6C41000030B505460B462A46F5
:1009300013F8014B12F8010B08B1A042F8D01CB11A
:10094000002802D06D1CF1E7284630BD4FF00002B0
:1009500000B5134694469646203922BFA0E80C50B5
:10096000A0E80C50B1F12001BFF4F7AF090728BF90
:10097000A0E80C5048BF0CC05DF804EB890028BF0C
:1009800040F8042B08BF704748BF20F8022B11F035
:10099000804F18BF00F8012B70472DE9F0470D4636
:1009A00099469246044600F124080168880604D559
:1009B000E06921F01001216000E00120A84201DD82
:1009C000471B00E00027A1697A1902EB0900081A09
:1009D000A0612078C00602D42046FFF751FC002613
:1009E00008E0D4E901211AF806009047206A401C6B
:1009F000761C20624E45F4DB2078C0060AD52046DE
:100A0000FFF73EFC06E0D4E9012130209047206A40
:100A1000401C2062381EA7F10107F4DC07E0D4E98E
:100A2000012118F805009047206A401C2062281E0A
:100A3000A5F10105F3DC2046FFF738FC207800061D
:100A400002D50220BDE8F0870120FBE701694A1CBE
:100A500002610878704700B58FB0CDE901310021FF
:100A6000059105497944CDE9031011466846FFF721
:100A700097FE0FB000BD0000E5FFFFFFD1E90023A6
:100A80009A4202D2531C0B601070704710B5436934
:100A900013B1AFF3008001E0FFF742FD012010BD6C
:100AA000127800F124010A7000224A700122EDE759
:100AB00011684FF0FF32E9E710B5436913B1AFF3A6
:100AC000008001E0FFF7A6FD012010BD128800F1B3
:100AD000240182840022C2840122EDE711684FF0D4
:100AE000FF32E9E72DE9F04116460C46054600F0D5
:100AF0001DF8036893F80101012807D0FF2C12D8D4
:100B0000185D80B101202C70BDE8F081D3F8070199
:100B10003246214603F20713C7182846BC46BDE8F3
:100B2000F041002360474FF0FF30EDE710B500F0D3
:100B30002AF8001D10BD00BF8D3D00007546FFF76F
:100B40007BFBAE4605006946534620F0070085460C
:100B500018B020B5FFF760FBBDE820404FF000065D
:100B60004FF000074FF000084FF0000BAC46ACE828
:100B7000C009ACE8C009ACE8C009ACE8C00921F084
:100B800007018D46704710B5FFF756FB203010BDAA
:100B900010B50446AFF300802046BDE81040FFF7D3
:100BA00027BB00004FF0013C50F8042B51F8043BE8
:100BB0009A4221D1A2EB0C03934313EACC1317D131
:100BC00050F8042B51F8043B9A4215D1A2EB0C03C8
:100BD000934313EACC130BD150F8042B51F8043B88
:100BE0009A4209D1A2EB0C03934313EACC13DBD056
:100BF0004FF00000704700BFD01A01BAB1FA81F17E
:100C000001F0180122FA01F0CB40DBB2C0B2C01AE9
:100C1000C1F120012CFA01F3D11A914311EAC31159
:100C2000E6D1704701491820ABBEFEE7260002005E
:100C3000012101FA00F00549C04351E8002F0240AC
:100C400041E80023002BF8D1704700BFE4010010F9
:100C50002DE9F84F364BDFF8DCA04FF0010B40F6E2
:100C6000FF790026002703F58675A02E08BFBDE892
:100C7000F88F18680BFA07F4204254D058682042C5
:100C800010D09C600AEB0608D8E9020188421CD10A
:100C9000F8B2FFF7CDFFD8F81010254B002942D04D
:100CA00001200FE0D86820423DD000206860286015
:100CB000F8B2FFF7BDFF1E4B0AEB06001C6101698D
:100CC00089B3022088471A4B2DE0401A484528BFB7
:100CD00048460144C8F80C10296849010BD55AF858
:100CE000061045F80C1C2A68C2F3814200FA02F291
:100CF00011444AF80610296809010BD5D8F80410E8
:100D000045F8081C2A68C2F3415200FA02F2114465
:100D1000C8F80410296821EA0901084328606868B6
:100D200040F0010068602035143601379DE700BFB0
:100D300000400050E8010010B0B500F09BFB00F04F
:100D40001FFC02F093FA2F4D4FF4963424B12888FB
:100D500002F07CFA013CF9E7294800F09CFB0020F6
:100D6000B0BD00BF2DE9F843304F14467A68002A21
:100D700040D055881688D2F80480D2F80C903246BC
:100D80002B4600F0E3FA00F0FBFBF11DA4EB08009A
:100D9000C908484300FB059402F068FA7868DFF858
:100DA00098954FF00008418888451CD2002501889D
:100DB0008D4214D2207805F00706F040C00748465F
:100DC00018BFB81C008802F041FA7868072E04D1D9
:100DD000018801398D4218BF01340135E7E708F178
:100DE00001080134DFE7064800210024426A13208D
:100DF000904701E04FF0FF342046BDE8F88300BF84
:100E00003C49000030000010F8B5084F14460D466C
:100E10000646227842B130462946FFF7A3FF78689C
:100E2000013400880644F4E70020F8BD800100107A
:100E30007CB5012000F0E8FADFF8A04E0026002083
:100E40000621002200230096A0470020062101224F
:100E500000F0E6FADFF8C45400F086FB002006211B
:100E600000F05DFB0020072100F059FB0020082165
:100E700000F055FB0020092100F051FB0020072164
:100E8000012200F0CDFA00F06FFB002007210122C3
:100E9000A847002006210022A847DFF884447020DC
:100EA0000121A04700200121A04700F05DFB0020A8
:100EB00006210022A84773200121A047002000211D
:100EC000A047044600F050FBDFF85804816805692C
:100ED000466A002088470220A847D048D049B0473A
:100EE000B4B9002002F09CF913200121B047DFF8CB
:100EF00038547320A8470020A8470020A84704467C
:100F00000020A847054613200021B04745EA0424E5
:100F1000DFF8C004472C40F0C7800121DFF8B84457
:100F20000170EA200021A047EB202021A047EC20FF
:100F30000C21A047ED20C721A047E8203821A04779
:100F4000E9201021A047F1200121A047F220102123
:100F5000A04740200121A04741200021A047422076
:100F60000021A04743201021A04744200E21A04784
:100F700045202421A04746200421A0474720502196
:100F8000A04748200221A04749201321A0474A201A
:100F90001921A0474B201921A0474C201621A0471A
:100FA00050201B21A04751203121A04752202F2142
:100FB000A04753203F21A04754203F21A047552060
:100FC0003E21A04756202F21A04757207B21A04734
:100FD00058200921A04759200621A0475A20062160
:100FE000A0475B200C21A0475C201D21A0475D206D
:100FF000CC21A0471B201B21A0471A200121A0477C
:1010000024202F21A04725205721A04723208821D5
:10101000A04718203621A04719200121A047012010
:101020000021A0471F208821A047C04DC820A84705
:101030001F208221A0473220A8471F209221A047CD
:101040003220A8471F20D221A0473220A8471720CE
:101050005521A04700200021A0472F201121A047A3
:1010600031200021A04732200021A047282038212C
:10107000A047C820A84728203C21A0471620A82127
:10108000A0470E200021A0470F200021A0471020DC
:101090000121A04711204021A04712200021A04794
:1010A00013200021A04732E10021CB4D0170012027
:1010B0004FF48071A84702204FF4E061A847042054
:1010C0000021A847082040F20721A8470920002155
:1010D000A8470A200021A8470C200021A8470D207E
:1010E0000021A8470F200021A84710200021A84771
:1010F00011200021A84712200021A8471320002119
:10110000A8478A4EC820B047102041F2B021A84716
:1011100011200721A8473220B047122040F2BD110C
:10112000A8473220B04713204FF4A051A8472920E8
:101130000E21A8473220B04720200021A8472120B7
:101140000021A84742F29350844243D045F2084020
:10115000844267D1302040F60D31A847312041F656
:101160002311A847322041F62641A847332042F2F6
:101170001C61A847342042F21941A847352040F6A7
:101180000B51A847362041F20601A84737204FF4FB
:10119000C261A847382040F20671A84739204FF4B1
:1011A0004171A8473A2040F60561A8473B2040F628
:1011B0000161A8473C204FF48771A8473D2040F2C9
:1011C0000E51A8473E2040F20341A8473F2040F27D
:1011D00007614BE030200021A847312040F2076131
:1011E000A847322040F20531A84735200021A84702
:1011F000362041F20461A84737204FF40171A84717
:1012000038200121A847392040F20771A8473C2027
:101210000021A8473D200F2128E000BF01830800DE
:1012200020BCBE0030200621A847312040F2011129
:10123000A84732200321A84735204FF48371A847DF
:10124000362040F60231A847372040F20231A84745
:10125000382040F20771A84739200721A8473C20D1
:101260004FF4C061A8473D2040F20B21A847502011
:101270000021A8475120EF21A84752200021A8476C
:10128000532040F23F11A84742F293504FF42741B8
:10129000844245F2084008BF4FF41C51844208BF05
:1012A0004FF41C516020A84761200121A8476A2003
:1012B0000021A84780200021A84781200021A847BD
:1012C00082200021A84783200021A84784200021F4
:1012D000A84785200021A84790201021A8479220E8
:1012E0000021A84793200321A84795204FF4887137
:1012F000A84797200021A84798200021A84703204D
:1013000041F23801A847072040F23711A8470420CE
:101310001C21012200F06CF800207CBDF1130000BC
:10132000613000003C4900003D3000004D2A0000C3
:1013300001490880002070473000001025494860AE
:101340000020704723494880002070472DE9F04174
:101350000546C8180C46A0F10108A818471E1D48EC
:10136000007801281DD11C4EC5F30F210220B04783
:10137000E9B20320B047C7F30F210420B047F9B208
:101380000520B047C4F30F210620B047E1B2072083
:10139000B047C8F30F210820B0475FFA88F1092051
:1013A00014E0A4B20C4E50202146B0471FFA88F139
:1013B0005120B047ADB252202946B047B9B25320B0
:1013C000B04720202146B047212029463246BDE8BB
:1013D000F04110478001001085320000034A4001AF
:1013E0001058C84000F00100704700BF14C0092029
:1013F000012303FA01F11823002A0F4A08BF1C2316
:1014000043EA401081507047044900280A6822F4DA
:10141000004218BF02F500420A607047C4C00F4086
:10142000012340018B400449002A0A580CBF9A430B
:101430001A430A50704700BF00C00920054806A1A2
:101440000068C0F3015051F8200007490968B1FB5A
:10145000F0F07047A8C10F40040000000100000038
:1014600002000000080000002C0000106FF07F4018
:10147000FFF75EBF002000214FF4A072F023FFF7BA
:1014800065BF016821F030010160016870474FF0CD
:10149000FF3102F08BB80021426A1320104703236A
:1014A00008400621B0600020009000F089B856F88E
:1014B0002030009140462321FEF7C2BE4FF47A70DF
:1014C00001F0E6BF00EB400009EBC0010020284717
:1014D000DBF8140002F06AB806EB80010A69C968FB
:1014E0005269114239467047142001F0D1BF0020E3
:1014F00039462246FFF788BC002021464246FFF7C6
:1015000083BC002021462A46FFF77EBC00206021D4
:101510004A46FFF779BC4FF0FF3001F0ABBA00222A
:101520000223009620470022002300942847002031
:1015300060212246FFF768BC336A4FF0010905932A
:10154000336A012B7047606902F024B8074601F046
:10155000F3BF0BEB8001896809685BF820302846EF
:1015600000912321FEF76CBE0020062101222847AE
:1015700002220023009530474FF47F00FFF7E2BEC0
:10158000222001F04DBE4FF0FF31406902F00EB84D
:101590000121D0E909564769132028470020214638
:1015A000FFF732BCDBF8140001F0F4BFFF20FFF7B7
:1015B000C9BE05F1080791CFBC61006801F068BFA2
:1015C000F0B500249E46184B0F460F2988BF012412
:1015D000C50003EB800045EA84050F2955F803C0D8
:1015E00088BF103F0326FFB27F00BE40BA402CEAFE
:1015F0000604EC50EC582243EA5045EA0302146C0E
:10160000B44314640EFA07F4156C2C4314640122DD
:1016100002FA01F1059A012A826E14BF22EA010141
:10162000114381660020F0BD00C0024070B5304C0F
:1016300001206568E061E90605D52E498871C96811
:1016400009B104208847A80606D52A48012101715E
:10165000C16809B102208847280647D52548416955
:10166000426A91421AD9C5699DB16B1CC3612B783E
:10167000266876070ED5266816F4706F03D02668A4
:1016800016F4706F06D0AE1CC6616D7843EA052370
:1016900000E0838D013242629AB2A260026A9142F6
:1016A00024D98369A5688BB15E1C86611D7026688C
:1016B00076070BD5266816F4706F03D0266816F4EB
:1016C000706F03D09E1C2D0A86615D7001328A42C4
:1016D00002620BD1216821F080012160002101709C
:1016E000C16819B10120BDE87040084770BD00BF56
:1016F00000000240880100102DE9FE4FF04E8346A5
:10170000307B820702D44FF0FF3519E05FFA8BF788
:10171000142F11D1E94C00251C21606820F0020033
:10172000606006F110006561FFF710F935716068BF
:1017300040F00200606003E0327922B16FF00105F1
:101740002846BDE8FE8F6FF00305132FF8D8DFE8B9
:1017500007F0710E800B0B0A0A0A0A0A0A0A0A0A23
:101760000A0A22616EABEBE76FF00605E8E7D34AA1
:1017700040F00400536823F00203536000235361D8
:10178000536823F0040353603073012030725068B3
:1017900040F0020050600029B5D00D01FFF74EFE69
:1017A0004FEA0019002002234FF0020E4FF000080C
:1017B0000290FE2B00F202810022501CA5EB080AC9
:1017C0005843B2F5807F10D0B9FBF0F41146A54222
:1017D0000DD04A1C1844A542F3D9A5EB040CE245F0
:1017E000EFD99E460291A046E7E70233E1E79E4625
:1017F0000A46B2495FFA8EF00861086820F47F401B
:10180000086010020A6880B21043102F08600FD0E1
:10181000B06835E0FFF712FEF0490A690968C1F3C4
:101820000721D2B201315143B0FBF1F588E7318590
:10183000002585E7E94900F0FB0000254A6822F011
:1018400002024A603073B06820F0FF00B0604D6162
:1018500076E7E24940F004004A6822F002024A605A
:101860004A6842F004024A6001224A61307302224F
:10187000B06862F30700B0604A6842F002024A6052
:10188000C1B201293CD1CBF3C141DFE801F002270D
:101890001B2300200621002200230090FFF790FE6A
:1018A000B06820F4C0102AE0B068474A1040474AA8
:1018B00090427FF428AF00250020002942D0062165
:1018C000002241E042490222FFF7E9FDB06840F4FE
:1018D000801014E03E490840B06030E03C490022EE
:1018E000FFF7DDFD002006210122FFF799FD002012
:1018F00006210122FFF77CFDB06840F40020B060B3
:10190000C1B202290CD133490840B0605FEA8B2094
:1019100015D400200621022203230090FFF750FE79
:10192000CBF30221052946D8AC48DFE801F00321BA
:10193000131C102AFFF7A5FD21F0C00125E06FF070
:101940000A05FDE606210122FFF752FDF8E60168CF
:10195000012218E0FFF795FD41F0400101600168A8
:1019600021F0800111E0FFF78CFD41F0C0010CE097
:10197000FFF787FD21F040010160016841F080011F
:1019800003E00168022262F305110160CBF3053127
:101990000A1F0C2A0CD80268013922F00F021143E9
:1019A00001604FEA4B306FF0090101EAE075C7E6CC
:1019B0006FF00805C4E66FF00705C1E6029AB8F1BA
:1019C000000F7FF416AF9EE6FF001800010008002C
:1019D00001FFE7FF02FFDFFFC148C169007B40074D
:1019E00001EAE070704700BF82B0BD4801794279DA
:1019F0008079009B61F300030093009962F3410139
:101A00000091009960F3820100910098019002B06A
:101A1000704700BF70B57148C46904F003010162EA
:101A2000C168890717D5AE490B690A6A934212D972
:101A30008D695DB16B1C8B612B780668360706D506
:101A4000AE1C8E616D7843EA052300E00B8D0132F8
:101A50000A6299B28160C168490722D5A0498268AB
:101A60000B69CD69AB421CD94B6953B15D1C4D610B
:101A70001A7003681B0704D54B69120A5D1C4D617F
:101A80001A70CB690A6901339342CB6109D10022F4
:101A90000A71426922F00F024261096809B101200E
:101AA0008847E00708D08E4801214171016819B1CB
:101AB0000220BDE87040084770BD00BF0000034031
:101AC000B80100107CB5864C217BC90717D10025D1
:101AD000206004F110001C21A571A580FEF736FFDF
:101AE0007E4E00200721FFF743FD00200821FFF76D
:101AF0003FFD00200921FFF73BFD0120207300205E
:101B00007CBD00BFB0B502282FD001282AD098BBD9
:101B100033484FF40041304A00240325C0F88010B8
:101B2000BFF34F8FBFF36F8F136843F4806313606D
:101B30002A4B5C615C621C605C601C611D62684DCC
:101B4000136823F480631360AC71AC80C0F880111B
:101B500005F110001C21FEF7F9FE287B00F0FD00C6
:101B600028730BE06FF0030408E05D48017BCA07AF
:101B700006D14FF0FF3401E06FF004042046B0BD01
:101B80008A074FF00004F9D4134A41F002011368A8
:101B900043F480631360D2F8E43023F44013C2F8B6
:101BA000E430D2F8E43043F48013C2F8E4300B4A56
:101BB000546184718480017303201062D0684007EF
:101BC00001D59068FAE706484FF400410024C0F8B8
:101BD00080110160D2E700BFC4C00F400000034085
:101BE00000E100E068B161B13D4B0246187B40075F
:101BF0005CBF4FF0FF307047187928B16FF00100DB
:101C000070476FF00400704710B5C3E9041226490D
:101C1000002001240F2298719C80C3E906001862FD
:101C20000A6010BD68B161B12D4B0246187B4007B8
:101C30005CBF4FF0FF307047187928B16FF001009A
:101C400070476FF00400704710B500200124C3E90D
:101C500004101549C3E906200F2298719C80186270
:101C60000A6010BD50B149B142B1B0B51C4C034639
:101C7000207B400705D44FF0FF30B0BD6FF004006B
:101C80007047207910B16FF00100B0BDC4E90421A4
:101C90000549002001250F22A071A580C4E9063066
:101CA00020620A60B0BD00BF14000340BCB50B4DFC
:101CB000002400200621FFF736FC00200721FFF753
:101CC00032FC00200821FFF72EFC00200921FFF73D
:101CD0002AFC034804730020BCBD00BFC1150000EE
:101CE000B8010010062070470048704702020A023F
:101CF00010B5264C2168D4F8840001F0407100F042
:101D00000300B1F1407F06D1DFE800F0020C2402AD
:101D10002068204908E0DFE800F0021A2F02E06F97
:101D20001C492CE020681A49400080B20230226829
:101D3000A0FB01010023C2F307420132FEF778FB4A
:101D4000E26F0023D2B20132FEF772FB1BE0E06FBC
:101D50000F4914E02068104901EA0040216800F5AD
:101D60008030C1F307410131B0FBF1F0E16FC9B23E
:101D70000131B0FBF1F006E0E06F4FF40041C0B27A
:101D80000130B1FBF0F00549086010BD88C00F407C
:101D9000001BB70000093D000000FF7F2C00001071
:101DA00034482021C0F8A011D0F8A011890603D52D
:101DB000D0F8A0114906FBD503212F4A5523C0F8BE
:101DC00004110021C0F8A811C0F8AC110121C0F81D
:101DD0000C11C0F88420AA22C0F88C20C0F88C30E6
:101DE000C0F88010C0F88C20C0F88C30D0F8881073
:101DF0004901FBD50321C0F88010AA21C0F88C103E
:101E00005521C0F88C10D0F8881001F04071B1F164
:101E1000407FF8D1232155220123C0F8A410AA2124
:101E2000C0F8AC10C0F8AC20C0F8A030C0F8AC10BE
:101E3000C0F8AC20D0F8A8104905FBD50321C0F8A4
:101E4000A010AA21C0F8AC105521C0F8AC10D0F8F1
:101E5000A81001F44071B1F5407FF8D10749042280
:101E6000C0F8C4100021C0F8C811016862F30F3136
:101E70000160704700C00F4063000500DE87280442
:101E800004480168C90708BF70470121016001F0DB
:101E9000ABB900BF008000400949097829B100684A
:101EA000DFF808C04FF6FF7100DF7047453D0000C6
:101EB0000349097819B10068DFF808C000DF7047EE
:101EC000050000106D3C000001F0EEFA034800210F
:101ED00001F0A6FB01F0FAFAFEE700BF185F000070
:101EE0002DE9F04F8BB08348007A01284DD081480E
:101EF000FFF749FBFFF7BAFAFEF71EFFFFF756FBA5
:101F00007EA200200021FEF77FFF8148DFF80482D7
:101F1000DFF80492814E30250DF1090700F1080425
:101F2000782D21D06FF07F40302D734908BF0846CF
:101F3000FFF7FEF9002029464246FEF765FF2068BC
:101F40003246302D0068009008BF4A4654F8083CDD
:101F500038462321FEF774F9002029463A46FEF759
:101F600053FF14341835DBE7FFF706FB6CA20020A3
:101F70009021FEF749FF70A20020A821FEF744FF40
:101F80005C4CFFF7E0FA01202072DFF884B1614E6B
:101F90004FF0FF3A00240DF109054FF000084FF013
:101FA000000900F059FFFFF7D1FAA0EB08016429FE
:101FB000C0F08980F9074FF000010DD014F0010244
:101FC0000AD1B9F1000F4FF000028046CA46C8BFDF
:101FD000A9F10102012100E04A46BB070CD514F02B
:101FE000020309D1022A4FF0020980469246B8BF87
:101FF00002F10109012100E091463A0711D514F0E0
:1020000008020ED109EB890180460BEB810189683A
:102010000A68643A0A600A68632ADCBF64220A60BC
:1020200001210F2C13D8102F11D309EB890141F294
:10203000893380460BEB810189680A6864320A6043
:102040000A689A42A4BF41F288320A6001217807E7
:1020500002D514F004003AD0A9B32648FFF793FA4A
:102060001AF101004FF0300416D0FFF7FFF90AEB28
:102070004A003021324601EBC004FFF78FFA0AEB29
:102080008A00264AFFF765FAFFF790FA21460020FA
:102090002A463024FEF7B8FE1748FFF749F909EB46
:1020A0004900324604EBC004FFF778FA09EB8900D7
:1020B000194AFFF74EFAFFF779FAFFF722FA0D48AF
:1020C000406901F067FAFFF70FFA3C4669E7094CEF
:1020D00000204FF0FF312072606901F067FAFFF7CE
:1020E000C5F9FEF729FEFFF72EFAFFF714FA0BB039
:1020F000BDE8F08F2C010010C0C0C00041646A75BB
:102100007374204F4E204475726174696F6E730052
:10211000785E0000905F00004060000042600000B8
:10212000552F443A53656C656374204C2F523A41E5
:10213000646A75737400000043656E7465723A4397
:102140006F6E6669726D00002DE9F04F85B0DFF8A3
:102150005CB104464FF0FF31FFF7BAF9FFF786F99B
:10216000FEF7EAFD524DFF20A847DFF8488104EB57
:1021700084066C4650A21421204658F82630FEF7FB
:102180005FF8524F002000212246B84750A200209D
:102190003021B84754A200204821B8474FF47F00AF
:1021A000A84755A200207821B8470020A84708EB8F
:1021B0008600564A1421466820463368FEF740F8E8
:1021C000002060212246B847FFF7ECF9DFF82C9E8B
:1021D0004FF000084FF0000A00F03EFEFFF7B6F99E
:1021E0000546A0EB080064284DD3F80722D01AF06A
:1021F00001001FD130684FF0FF310A303060306885
:10220000B0F5805FA4BF40F6FF703060FFF760F963
:10221000FFF72CF90020FFF795F8FFF777F93368FF
:102220003A4A20461421FEF70BF8FFF780F9FFF732
:10223000B9F9A846B80721D51AF002001ED13068B6
:102240004FF0FF310A3830603068B0F1FF3FDCBF3B
:1022500000203060FFF73CF9FFF708F90020FFF796
:1022600071F8FFF753F93368284A20461421FDF727
:10227000E7FFFFF75CF9FFF795F9A846780702D565
:102280001AF0040003D0FFF72FF9BA46A4E7DBF8F1
:102290001400FFF7FCF8FFF7E9F8FEF74DFDFFF734
:1022A00081F9FFF738F905B0BDE8F08F2C01001077
:1022B00045130000785E0000536574202573205498
:1022C00068726573686F6C6400000000090E00009E
:1022D000557365206A6F79737469636B2055702F2D
:1022E000446F776E00000000746F2061646A75733C
:1022F000742076616C75650043656E746572207438
:102300006F20636F6E6669726D000000C35F00002E
:102310002DE9F04F8DB085480079012853D08348CE
:10232000FFF731F9FFF7A2F8FEF706FDFFF73EF9D8
:1023300080A200200021FEF767FD8348DFF80C82B1
:10234000DFF80C92DFF80CA2DFF80CB2834D3024DA
:102350000DF1110600F11007782C23D06FF07F40AB
:10236000302C734908BF0846FEF7E2FFFFF7C4F8B8
:1023700057E9010157F8103C2A464969084250467E
:1023800008BF4846302C009008BF5A4630462321EB
:10239000FDF756FF002021463246FEF735FD143783
:1023A0001834D9E7FFF7E8F86DA200209021FEF776
:1023B0002BFD714A0020A821FEF726FD5B4CFFF79C
:1023C000C2F801202071604EDFF88491DFF884812B
:1023D0004FF0FF30002700254FF0000B039000F076
:1023E0003BFD824601F0A8F80446401B6428C0F07B
:1023F00085805FEACA704FF000000CD017F0010131
:1024000009D1BBF1000F4FF000012546C8BFABF169
:102410000101012002E05946DDF80CB05FEA8A7242
:102420000CD517F0020209D102294FF0020B254604
:10243000B8BF01F1010B0120039102E0CDF80CB00F
:102440008B46072F08D8BAF1080F05D35FFA8BF037
:1024500000F03AFE012025465FEA4A7102D517F0E6
:1024600004014FD0002849D030484FF0FF31029589
:10247000406901F09BF84D46DDF80C90474630244A
:102480000DF1110819F101001AD0FEF7EFFFFFF767
:102490008DF809EB490030212C4A01EBC004FFF70D
:1024A0007DF809EB8900FFF717F82C4A08BF294689
:1024B000FEF7FDFF2146002042463024FEF7A4FC33
:1024C0001B48FEF735FF0BEB4B00204A04EBC00422
:1024D000FFF764F80BEB8B00FEF7FEFF1E4A08BF08
:1024E0002946FEF7E4FFFFF761F8FFF705F80F480C
:1024F000406901F04FF8A946029DB846FEF7F4FF87
:1025000057466CE7094C00204FF0FF31207160699D
:1025100001F04CF8FEF7AAFFFEF70EFCFFF713F8E8
:10252000FEF7F9FF0DB0BDE8F08F00BF2C010010E1
:10253000C0C0C0004163747561746F727320436FD3
:102540006E74726F6C000000785E0000905F000097
:10255000AA5F0000AE5F000032600000346000003F
:1025600055702F446E3A53656C656374204C2F523E
:102570003A4F4E2F4F4646006160000090F800A091
:102580001A49DFF898BC4FF000090AEB8A000BEB00
:102590008A0601EB800505F10408F06B4FF0FF316E
:1025A00001F032F8B06C28B1FFF703F8FC61C6F80F
:1025B0004890F2E7DBF81000FEF769FFBAF1000F70
:1025C0000DD0306BD8F800100968884202DCFEF7A5
:1025D000F0FFFC61DBF8100000F0DCFFDDE7DBF86A
:1025E0003000DBF830108842F1DAF3E7785E000063
:1025F0002DE9F04F91B0DFF80404DFF804641E21E8
:10260000002300F1080200200792032B0AD006EBFA
:10261000830442F8080C42F8040C11600C320133B8
:10262000A064F2E7002100204FF00009F16108905A
:102630003162307B10BB7069FEF729FFFEF716FF91
:10264000FEF77AFBFEF7B2FFDFF8B823DFF8B843F6
:1026500000200021A047FEF78FFF0FF2B0320020CC
:10266000A821A047DFF8C0230020C021A04770693F
:1026700000F090FF4FF0010986F80C904FF0FF300A
:10268000DFF878A94FF0010B4FF00008049009AC77
:102690000590079F0025032D17D0706A57F8081C76
:1026A00088420FD1B06A57F8041C88420AD1F06AF8
:1026B0003968884206D106EB8500C0F848B0C06B87
:1026C00000F096FF0C370135E5E700F0C5FBFEF79B
:1026D0003DFF0899411A632940F21081FA070ED094
:1026E0005FEAC8710BD1F1694FF001090491F169FA
:1026F0000129A6BFF16901390021F1610890B907EC
:102700000ED55FEA88730BD4F3694FF00109049387
:10271000F369012BDABFF36901330223F3610890F7
:102720003B070AD518F0080307D1FEF705FFA6BF3F
:10273000336A013B002333620890B8F10F0F09D8C8
:10274000102F07D3FEF7F8FEDABF336A01330223F6
:1027500033620890F2B15FEAC8731BD1336ACBB918
:10276000F369BC46A54F03EB430357F82330162B00
:1027700006DCF36903EB430357F82330013300E031
:102780000023F5694FF0010905EB450547F82530B1
:102790006746089000291ED55FEA88731BD4336A08
:1027A000CBB9F369BC46954F03EB430357F823308D
:1027B000012B06DBF36903EB430357F82330013B9E
:1027C00000E01723F5694FF0010905EB450547F8CF
:1027D00025306746089012B35FEAC8731FD1336A89
:1027E000012B1CD1F369BC46844F03EB430307EB79
:1027F00083035B683A2B07DCF36903EB430307EBC6
:1028000083035B68013300E00023F5694FF00109A1
:1028100005EB450507EB850567466B6008900029C9
:1028200022D55FEA88731FD4336A012B1CD1F36968
:10283000BC46724F03EB430307EB83035B68012B3A
:1028400007DBF36903EB430307EB83035B68013B9F
:1028500000E03B23F5694FF0010905EB450507EB67
:10286000850567466B60089002B35FEAC8721DD1A8
:10287000326A022A1AD1F269604D02EB420205EB7C
:10288000820292683A2A07DCF26902EB420205EB07
:1028900082029268013200E00022F3694FF00109E0
:1028A00003EB430305EB83039A600890002920D5CE
:1028B0005FEA88711DD4316A02291AD1F1694F4B40
:1028C00001EB410103EB81018968012907DBF16913
:1028D00001EB410103EB81018968013900E03B21F3
:1028E000F2694FF0010902EB420203EB82029160B0
:1028F0000890780702D518F004006BD0B9F1000FEA
:1029000007D1F0690499814203D1306A0599814267
:102910005AD070694FF0FF31069700F047FEFEF77E
:10292000A5FDDDF81C80DFF804914FF0000B302787
:10293000782F3FD0F06983454FF0000008BFFF209B
:10294000FEF700FDF06958F8081C58F8042CD8F878
:10295000003001AD0EC5D9F8001036A336A20091A3
:10296000834533A008BF034620462021FDF768FCBD
:10297000002039465246FEF747FAFEF7B8FDF069E7
:1029800083450FD1306A28B1306A5A25012808BF23
:102990003C2500E01E25FEF7EFFD284639465E2265
:1029A000FEF7E0F908F10C0809F1140918370BF1EA
:1029B000010BBDE7706900F0EDFDF0694FF0010B10
:1029C0000490306A069F0590FEF78EFD4FF00009D7
:1029D000B8465EE600204FF0FF313073706900F0BA
:1029E000E5FDFEF743FDFEF7A7F9706900F0D2FDA3
:1029F000FEF791FD11B0BDE8F08F00BF440000105C
:102A00002C0100104C600000090E0000552F443AC4
:102A100053656C65637420416374204C2F523A46B1
:102A200069656C640000000061600000785E000071
:102A30003E20000020200000257325733A25303207
:102A4000643A253032643A2530326400814909689D
:102A5000890B484368B100BF013800BF00BF00BF09
:102A600000BF00BF00BF00BF00BF00BF00BF00BF6E
:102A7000F0E770472DE9F04F89B0DFF808A1044670
:102A80004FF0FF31DAF8140000F090FDFEF7EEFC95
:102A90009AF8000001283BD1601C39D0DAF8180000
:102AA000844268D0FEF7E2FCFEF780FDDFF8D880B4
:102AB00004EB44004FF03009344D09EBC006002010
:102AC00031464246A847324F324A232157F8243034
:102AD0000DF101042046FDF7B3FB002031462246EC
:102AE000A8472D48FEF724FCDAF818004246FEF706
:102AF000E9FCDAF81800294A232157F8203020464B
:102B0000FDF79EFBDAF818002246FEF7DBFC32E008
:102B1000FEF712F9FEF74AFD21A20020002100264F
:102B2000FEF772F91C48DFF87480DFF86890184FE0
:102B300030240DF101058346D82C19D0DAF818009D
:102B40004A46864208BF424657F826302846232187
:102B5000FDF776FBDAF8180086426FF07F4008BF79
:102B60005846FEF7E5FBFEF7CCFC18340136E3E7E8
:102B700001208AF80000DAF8140000F00BFD09B01B
:102B8000BDE8F08F2C010010905F0000090E0000DE
:102B9000B45E00003D600000C0C0C0003B600000AB
:102BA000477265656E686F757365204D656E75005B
:102BB0000648016841F4A82101603248016841F4E7
:102BC00080510160A34802490160704704C002407F
:102BD000070420000A480C4B016841F030410160B5
:102BE000016A41F00401016206490A681A400A605C
:102BF0000A6C1A400A64016821F0F26101607047B2
:102C000020C009200CC00240FF3CC0FF80B5FFF788
:102C1000CFFFFFF7DFFF00F021F8BDE8804000F0B4
:102C200001B8000017480422016841F00401016066
:102C300007480221016000218160064909680139C5
:102C400041610321016104490A600121016070476B
:102C5000048000402C00001000E100E009480168F9
:102C600041F0080101600848016841F0500101602D
:102C70008D488321017300210171612101700321BD
:102C800001737047C4C00F4000C00240FFF730F826
:102C9000FFF7BCFF00F008FC1C4800F065FCCF4CBF
:102CA00020611B4800F060FC60611A481A4D012148
:102CB000A847E063194800210027A8472064184866
:102CC0000021A84760641748174C0021A047174807
:102CD0000021A04716480021A04716480021A04720
:102CE000DFF85480154C164D032F0BD008EB070668
:102CF0002046314600F094FC2846314600F090FC16
:102D00000137F1E700F0E2FBFEE700BFE85E0000FC
:102D1000EC5E0000F45E0000C5350000FC5E0000C3
:102D2000F85E0000585F000021360000785F000068
:102D3000685F0000285F00003C000010385F000062
:102D4000085F0000FFF746FFFEF772F82248FEF723
:102D5000F5FAFEF7E0FBA14DAC6900F07DF8002824
:102D600036D0C10705D0A969002902DD4FF0FF3038
:102D700005E0810707D5A969062904DA0120A969B8
:102D80000844A86120E040071BD5A869062818D888
:102D9000DFE800F0040F090B0712150000F09CF8A3
:102DA0000FE0022002E0002000E00120FFF7CCF954
:102DB00007E0FFF7ADFA04E0FFF792F801E0FFF754
:102DC00017FCA869A04203D02046FFF753FEAC6968
:102DD000FEF78AFBC1E700BF685E00000478E749A0
:102DE000F94E04EB840006EB840701EB8000051D1F
:102DF0003069FEF74CFB6CB1386B29680968884272
:102E000002DCF86B00F0F4FB306900F0C3FBFEF766
:102E100055FBEDE7306B316B8842F2DAF4E700BF27
:102E2000FEE700000B490A6822F007020A6001224F
:102E300002FA00F00A6810430860086840F08070E9
:102E400008604868B0F1FF3FFBDC4868C0F30B1036
:102E5000704700BF0040034010B50D4804240168CE
:102E60000268036804EA93430224C1F3C05104EAF0
:102E700012621144026800681944082303EA52529E
:102E80001144102202EA9050084480F01F0010BD47
:102E900034C00920B74902782AB10B7D9B06FCD5C6
:102EA0000A700130F7E7704700C00040DB4C206932
:102EB000FEF7EDFA0025032D07D0E8B204EB8506F6
:102EC000FFF7B0FF30630135F5E7206900F062FBE2
:102ED000FEF7F4FAEBE700BF2DE9F04F8DB03F4D60
:102EE0004FF0FF31686900F061FBFEF7BFFAFDF7B4
:102EF00023FF686900F04EFBDFF8E480DFF8009103
:102F0000002705AC05F1300044A6039068694FF036
:102F1000FF31049700F04AFBFEF7A8FA0020C047F3
:102F20006B6AA86AE96A2FA2CDE900012046202138
:102F3000FDF786F9314A00203021C84700203021B2
:102F40002246C8472869FEF7A2FAFF20C0470020A2
:102F500018212CA2C8470020C047DDF80CA0DFF8DC
:102F6000B8B06027A82F0DD05AF8040B5BF8143BBB
:102F70002021324600902046FDF762F9FEF7B7FAAD
:102F80001837EFE7FEF7F8FA0020A82125A2FDF791
:102F90003BFF286900F0FEFA686900F0FBFAFFF7D2
:102FA0005BFFFEF7D3FA632805D9780703D50498A9
:102FB00010F0040002D0FEF781FAA7E76869FEF777
:102FC00066FAFEF753FAFDF7B7FE686900F0E2FA19
:102FD000FEF7A1FA0DB0BDE8F08F00BF2C01001084
:102FE0004513000054696D653A20253032643A2556
:102FF0003032643A2530326400000000905F0000F7
:10300000090E0000446973706C61792053656E731A
:103010006F72204461746100785E000025733A206D
:103020002564000050726573732063656E74657269
:1030300020746F2072657475726E00001CB58DF877
:103040000700A7480DF106010122C369846A0DF14A
:1030500007009847A047C007FCD19DF806001CBD9B
:10306000F8B50546481E0C4609210026B0FA80F046
:1030700042090020FEF7D4F90727002F22D40020B0
:1030800007210022FEF7B4F90120FFF7DFFC012C35
:1030900008D125FA07F0092100F001020020FEF70F
:1030A000A7F905E000200921FEF798F9B84006438A
:1030B000002007210122FEF79BF90120FFF7C6FC43
:1030C000013FDAE7F0B2F8BD2C4900EB80001C2389
:1030D00001EB80000169C0684A69104208BF1823EB
:1030E000C850704798B0234F244D002608AC0DF10E
:1030F000100A0FF28C08EB460FF28C09387DC007DE
:1031000034D038780A2804D03F2E02DAA055013690
:103110002CE000201849A05500260898884225D1A7
:1031200000273C2F20D0EE5950461021424633460E
:10313000FDF786F8584610214A463346FDF780F8D9
:1031400020465146FDF7F0FB18B1E8190169C06847
:10315000886120465946FDF7E7FB18B1E819016977
:10316000C068C8611437DCE7024F00260A2000F06F
:103170008FF9C3E700C00040434D443A785E000039
:1031800025733A4F4E00000025733A4F4646000023
:1031900092B00D4E02AC0DA53069FEF778F9336B95
:1031A000706BB16B2A46CDE9000120464021FDF746
:1031B00047F8306900F0EEF92046FFF76BFE40F665
:1031C000B83000F065F9E7E72C01001054454D5088
:1031D0003A25647C4D4F4953543A25647C4C494709
:1031E00048543A25640A00000C48C16A0131C162A2
:1031F000C16A3C2910DB0021C162826A013282620D
:10320000826A3C2A08DB8162416A01314162416A7B
:103210001829A4BF00214162704700BF2C01001093
:10322000F8B504462E48FEF7B3F9702003218DF857
:103230000340ADF801000DF10100B847B047C007E9
:10324000FCD113200021A847F8BD00BF1CB540BA2F
:103250000221ADF8060022484269846A0DF1060099
:103260009047A047C007FCD11CBD00BF80B51C48DB
:103270000121426A132090477220BDE88040FFF789
:10328000DDBE00BFF8B58DF80300000A0C467021C2
:103290008DF8020012488DF80110FEF779F90DF152
:1032A00001000321B847B047C007FCD1132000211B
:1032B000A847722001218DF803408DF80100200AF3
:1032C0008DF802001320A8470DF101000321B84733
:1032D000B047C007FCD113200021A847F8BD00BFAC
:1032E0003C4900000000000010B5002A06DA22F078
:1032F0000042D21D22F00703102203E0D21C22F06C
:1033000003030C2213B19C188C4201D9012010BD7B
:10331000024401448360C0E90021C91AD0188842E0
:1033200002D810600246F9E70020106010BD303866
:103330000A2801D201207047002070470848006821
:10334000C0010BD507480068C00707D00548803882
:103350000068002802DA0449012008707047000064
:10336000FCED00E0800E00E0280000104FF060420D
:10337000D36F002BFCD0036BD367D36F002BFCD033
:10338000C07840EA0120A2F87C0070474FF060410D
:10339000CA6F002AFCD081F87C0070470EB58022ED
:1033A00000B109B110460AE001780129FAD101A95A
:1033B00000F034F8042801D0002000E01020DDE9FE
:1033C000011203B000BD70B50D46040003D012B960
:1033D0002078012801D0802070BD204600F038FB05
:1033E00028B12946204600F044F8002070BD812015
:1033F00070BD10B500F0AAFA10B10178022901D011
:10340000802010BD4188A1F57F42FF3A03D000F033
:1034100037F8002010BD812010BD000010B5044613
:103420008089002824D0608904EB8000006908604E
:10343000606840B16078022805D10021204600F084
:103440000BFD00F0F9FC04F10C0000BFD0E85F1F99
:10345000491E8AB2C0E8512F0029F7D16089401C6B
:1034600080B26081E189884201D10020608104201E
:1034700010BD10B500F0F0FCBDE8104000F0DCBC61
:1034800010B5002100F0E8FCBDE8104000F0D4BC0D
:10349000EFF3058109B182207047DFF808C000DF33
:1034A0007047000039450000EFF3058008B1822025
:1034B0007047EFF31480C00703D0DFF80CC000DFC3
:1034C000704701F043B800004D45000088B0EFF3AD
:1034D000058010B1822008B07047EFF3148010F01F
:1034E0000301134806D001291BD0022911D003295A
:1034F00019D113E008A981F309880078C0070BD01F
:103500005FF0020080F31488BFF34F8FBFF36F8F1B
:1035100009E00078C00706D10320F3E70078C00770
:1035200001D0FF20D7E7DFF80CC000DFD3E70000B1
:10353000DD5E0000BD450000EFF3058008B100200E
:103540007047DFF808C000DF704700000546000044
:10355000EFF305820AB1FFF721BFDFF808C000DFF3
:103560007047000061460000EFF3058109B10020BB
:103570007047EFF31481C90702D10449497819B1A2
:10358000DFF80CC000DF704701F087B804000010BE
:103590009B460000EFF3058109B182207047DFF8F8
:1035A00008C000DF70470000B7460000EFF3058257
:1035B0000AB182207047DFF808C000DF70470000C2
:1035C000D9460000EFF305820AB100207047EFF3FF
:1035D0001482D20702D1044A52781AB1DFF80CC023
:1035E00000DF704701F095B8040000101347000099
:1035F000EFF3058109B1FFF7FCBEDFF808C000DF7B
:103600007047000037470000EFF3058212B14FF01A
:10361000FF307047DFF804C000DF70475F470000ED
:10362000EFF305820AB100207047EFF31482D2074E
:1036300002D1044A52781AB1DFF80CC000DF70479B
:1036400001F0A6B80400001091470000DFF80CC09C
:1036500000DFDFF80CC000DFFEE70000FD470000E0
:1036600019480000DFF804C000DF7047514800002F
:10367000094C4FF0FF3529462068FFF769FF0246E5
:103680000846102AF7D1FFF7EDFF0028F3D00246D5
:1036900008469047EFE700005035001007480168E2
:1036A0004FF0E02041610021816107210161044860
:1036B000016841F07F410160401770478C5F000056
:1036C00020ED00E07047000002480068C0F3806011
:1036D0007047000004ED00E04FF0E02080690249EF
:1036E0000968081A704700008C5F000050E8001F4E
:1036F00031B10B6840E80032002AF7D10846704724
:10370000BFF32F8FFAE710B568B161B10B3121F02B
:103710000302016844680B1A1B1B934205D208463A
:1037200009680029F5D1002010BD210007D021181B
:103730000368C1E90032016001F1080010BD426078
:10374000083010BD70B50D46002812D04FF6FF713D
:10375000084C884204D222680146104600F0AAFBB9
:1037600020684570044800F0DDF8BDE8704000F0C6
:10377000A1BC70BD0C0000109C0000100F4810B5DB
:103780000D4942680E480B680068934204D00A60F5
:10379000CB88421E1A448A808A8880B282420AD12B
:1037A00000200860054800F0BDF80146BDE8104063
:1037B000024800F0A3BB10BD200000109C000010C8
:1037C0001C00001070B5194DE86800282CD0A88A9C
:1037D000401EA882002621E0A06838B161684160DF
:1037E000606810B1A16881606660A6600F482146DC
:1037F000183800F083FBA08AA8826078042804D1DE
:103800000B49E08A09880844A08201206070E068C2
:10381000E860E06808B10561E6602661A88A0028D2
:1038200002D1EC68002CD7D170BD0000B4000010AC
:103830001C00001070B504000FD00D4DA1780126BA
:103840002868827891420CD900F074FB2868467091
:103850002046BDE8704000F02DBC064800F062F83C
:10386000F7E766702146BDE87040024800F046BBAD
:103870000C0000109C0000100321FFF763BF000044
:1038800010B50446008B084320836278618B062ABA
:1038900018D0052A19D1084217D001EA0002628324
:1038A00088432083204600F070FB01206070628B0B
:1038B0000821204600F065FB2146BDE81040034882
:1038C00000F01CBB31EA0002EAD010BD9C000010E1
:1038D000814202D342688A4201D8012070470268BF
:1038E0000A60BFF35F8F50E8003F0A689A42F6D142
:1038F00040E80012002AF2D10020704768B161B19F
:103900000022083902E00246006830B18842FAD14C
:103910002AB1006810600020704701207047002124
:103920004160F8E70146406842684A600B7800222F
:10393000022B05D0012B03D0032B01D0426070472E
:1039400043680BB19960426082607047810700D084
:103950000020704770B504460020154620700122F3
:103960006270A17084F824106060A060E060206143
:103970002062A082E0822083608384F82500E08CAE
:1039800018B90548FFF7B2FEE06229462046BDE8B7
:10399000704000F01DB800009002001008B1082926
:1039A00001D2012070470144091F002201600A6012
:1039B000426010467047000003480021016003493F
:1039C0000988C1807047000020000010F05E0000F0
:1039D00070B5C28C1C4D930802D12A88C2F38D03A6
:1039E000C26A02EB8302540700D5121F4FF08074A5
:1039F00042E9021400242646B2F1400242F8246053
:103A0000641C0E2CFAD3C4691462826201632968B3
:103A1000C90014D5112B12D94FF0FF31103B11EB17
:103A200053014FF0CC3305D042F8043C42F8083D36
:103A3000491EF9D1C16A121F8A4200D91360C06AB7
:103A40000249016070BD0000045F0000A52E5AE22B
:103A5000C1898089081A70470122027000224270D1
:103A60008270426002814281103982818908C1815D
:103A7000704700002DE9F041044640680E464FF0C3
:103A8000000804F10C05E8B36078012701283ED056
:103A9000022813D003285CD10846FFF727FE050053
:103AA00057D02046FFF73EFF0446294600F066FA4D
:103AB0006770204600F069FA214621E02046FFF7B2
:103AC00031FF0646002100F059FA2189F06904EB24
:103AD00081010861D5E85F0F401C81B2C5E8501F25
:103AE0000028F7D12089401C80B22081E1898842DA
:103AF00001D1A4F808807770304600F046FA3146CC
:103B0000174800E00CE0BDE8F04100F0F7B92046AE
:103B1000FFF708FF04463246102100F032FAC7E7EB
:103B2000A089E189884216D2208904EB80000661D1
:103B3000D5E85F0F401C81B2C5E8501F0028F7D1BF
:103B40002089401C80B22081E189884201D1A4F8FB
:103B50000880BDE8F081BDE8F0410320FCF7CDBB53
:103B60009C00001070B50446808915460026C0B33D
:103B7000608904EB8000006908606089401C80B2A5
:103B80006081E189884200D16681606810B1607807
:103B900002280BD014F10C04D4E85F0F401E81B250
:103BA000C4E8501F0028F7D1002070BD2046FFF761
:103BB000B9FE0546002100F0E1F92189E86904EB2E
:103BC000810108612089401C80B22081E1898842FE
:103BD00000D12681284600F0D8F92846FFF72AFEB2
:103BE000E2E7FFE73DB10B48626801682AB1204671
:103BF00000F084F908E0012070BD616001684E604A
:103C0000006884600120607008212846FFF79AFD53
:103C1000F1E700000C000010002814D0411C13D064
:103C20000C4A4FF6FE7190420CD800EB4002C2EBFA
:103C3000C0120948036803EBC202521EB2FBF3F044
:103C4000884204D9084670474FF6FF70704780B22B
:103C50007047000000093D00D85E0000032101709C
:103C60000021418041608160C16070472DE9F041D1
:103C70000446408820B1314DA1682A68914202D0A3
:103C8000FF20BDE8F081401E0004000C608053D18D
:103C90002968086AA04209D1E068086208E0C268A1
:103CA000A24202D1E268C26002E010460028F6D1CA
:103CB00091F824000A6A06E053681BB19B7883429E
:103CC00000D91846D268002AF6D18870DFF87080D3
:103CD0006168012611B32046FFF724FE0746002144
:103CE00000F04CF9384600F050F96680A760386A59
:103CF000E0603C622968D8F804008A7880788242C3
:103D000001D3384616E00E4800F0F8F839460C4862
:103D100000F0F4F8286846707E700AE0D8F80410C5
:103D20008A782968824207D9054800F0E7F82868B0
:103D300046700020FFF77EFD0020A2E70C00001077
:103D40009C00001070B51C4D0E4604464188286842
:103D500061B1A268824210D1A1F57F40FF3803D043
:103D6000491C6180002070BDFF2070BDA060016A09
:103D7000E160046201206080F4E776B19178807898
:103D8000814203D29070A06800F0DEF8606830B124
:103D90002046296800F0B2F808E0012070BD2868CC
:103DA00060602968002048602868846009213046E6
:103DB000FFF7C8FCF1E700000C00001070B51B48CD
:103DC000012102685170006800F0B4F8184D6C7859
:103DD00018E000BF05EBC40148680278EAB1012A87
:103DE00020D000F005F9E878641C844200D100245A
:103DF0000F48801CD0E84F1F491EC9B2C0E8421FBF
:103E0000002AF7D1A8780028E4D16C700948FFF7A0
:103E100089FDBDE8704000F04DB9098989B2FFF70E
:103E20002FFDE0E78968FFF725FEDCE70C000010B6
:103E30008C3500109C0000100548017811B101215B
:103E40004170704703494FF0805008607047000090
:103E50001400001004ED00E0F0B4154DAB1CEE783A
:103E60004FEA0507D3E84F2FB24202D1BFF32F8F9D
:103E700011E0521CD4B2C3E8424F002AF2D100BF75
:103E8000D7E84F2F541CB44200D10024E4B2C7E855
:103E9000434F002BF4D1EB78934205D905EBC202D6
:103EA000C2E90101F0BC7047F0BC0220FCF725BA62
:103EB0008C350010104A10B5D368ABB113469B8AFD
:103EC00003E08CB12246A48A2344D4688B42F8D301
:103ED000C460D0600261C46804B12061591A818253
:103EE000908A401A908210BD0024C460D060C91A24
:103EF00002619182848210BDB400001030B5027856
:103F00000023022A03D0012A01D0032A00D1012371
:103F10008C7800E01046426812B19578A542F9D23B
:103F20004A6041601BB102B19160886030BD0020E1
:103F3000FBE7000003494A68426000228260486053
:103F4000704700009C00001010B5836804462BB930
:103F5000607801280ED1084B03E09B681878002890
:103F6000FBD0204600F026F82146BDE81040184658
:103F7000FFF7C4BF10BD00009C000010806A016202
:103F80007047806AC0E90812704710B501690029BE
:103F90000ED0C268CA60C36800223BB18B8A848A93
:103FA00023448B82C3681961C26000E08A82026187
:103FB00010BD0000816839B142684A60416800293B
:103FC00001D0806888607047054906E04A688242EF
:103FD00002D140684860704711460029F6D1704709
:103FE0009C00001002220270002242604180704753
:103FF00010B5416881B1FFF795FC0446FFF7C5FF96
:104000000120607001462046FFF7B8FF2146BDE859
:1040100010400348FFF772BF4188491C418010BD22
:104020009C00001010B5416861B1FFF77BFC0446AD
:104030000121FFF7A3FF2046FFF7A7FF2046FFF768
:10404000F9FB02E04188491C4180002010BD0000BE
:1040500010B50C46418819B1491E4180002010BDA1
:1040600034B10A4A4368116823B1FFF747FF07E0FC
:10407000012010BD416013680021596011688860FB
:1040800007212046FFF75EFBF2E700000C0000105E
:1040900006480068D0E90A10814203D30068044949
:1040A000884202D00120FCF728B970470C000010AC
:1040B000A52E5AE20749022248604270064A127849
:1040C000002A05D006C98A4202D0C078FFF75EB93F
:1040D000704700000C0000102800001070B5FFF7BA
:1040E0002DF900200446204A204902E042F82040F1
:1040F000401C0B889842F9D31D48342201881D4882
:10410000FFF7F2F81C48008880B240F000421B48DC
:1041100001681B48FFF7E8F81A48082201881A4886
:104120000068FFF7E1F8194DFF20194AE870EC84A8
:1041300000212846FFF70EFC164804210170446058
:1041400015480170C46004618482144815490560F3
:10415000022068701248047044700978C170BDE88C
:104160007040FFF729BC000058350010DE5E0000EB
:10417000D45E0000A0320010045F0000D05E00009A
:1041800090020010D65E0000880200106800001047
:10419000212E00009C000010B40000100C00001044
:1041A0008C350010DC5E00001B4810B5016841F43E
:1041B0007F01016000684FF07F4101EA002016494D
:1041C000C0431439B0FA80F00968C0F10800C1F3A7
:1041D0000221814200D3481C0F49091F0B686FF070
:1041E0008072824063F317020A60FFF757FA0B49A7
:1041F000002808600EDB00F1E021FF2281F8002496
:1042000000F01F02012191404009800000F1E020F0
:10421000C0F8001110BD000020ED00E018000010F3
:104220000C4810B50268012151700068FFF782FE4A
:10423000FFF7A4FA08480168491C0160FFF7C2FAB9
:1042400000F012FB0548FFF76DFBBDE81040FFF7DB
:1042500031BF00000C0000101C0000109C0000107A
:10426000002805D0810702D10178002900D0002064
:104270007047000030B50B4C0023626805E095687C
:104280008D4204D813461268491B002AF7D10260F8
:10429000816012B19568691A91600BB1186030BDE8
:1042A000606030BD040000102DE9F0411E46174645
:1042B00080460D4611F0FF0F00D14D1C1848FFF746
:1042C00015FA041E16D0280AE762E084E9B24246D5
:1042D0002046E661FFF73EFB01251248124905E042
:1042E00000EB850252F8042C32B16D1C0A8895420D
:1042F000F6D90020BDE8F081002DFAD000EB850052
:1043000040F8044C0948E570007818B101212046B6
:10431000FFF72CF82046FFF78DFA2846EAE7000061
:10432000A032001058350010DE5E0000280000109A
:104330002DE9F05F584DDFF85891DFF85881296872
:104340004FF0010A002618B1CA78AB46824243D129
:104350004E70FBF7D8FF29688862FFF799FE28683E
:10436000046A1FE06068C0B12046FFF7DBFA074629
:104370000021FFF703FE3846FFF707FE87F801A08C
:1043800039464648FFF7BAFDE168A4F802A0A760E5
:10439000386AE0603C620C4604E0E0686680A66033
:1043A000E6600446002CDDD12868C27808EB820163
:1043B00041F8046CC16A3A48FFF78AFA2868C66275
:1043C00099F8001011B10021FEF7D0FF3548296897
:1043D000FFF77EFA2E6056E03349098888420CD8F0
:1043E00008EB800858F8045C3DB12846FFF7E2FD71
:1043F0002846FFF7CAFD2C6A22E0FF20BDE8F09FA7
:104400006068C0B12046FFF78DFA07460021FFF72C
:10441000B5FD3846FFF7B9FD87F801A039461F48BA
:10442000FFF76CFDE168A4F802A0A760386AE060BD
:104430003C620C4604E0E0686680A660E6600446E4
:10444000002CDDD148F8046C1548E96AFFF740FA02
:10445000EE6299F8000018B100212846FEF786FFA9
:1044600029461048FFF734FA0C48DBF80010406882
:104470008B7882789A4209D981F801A00748DBF845
:104480000010FFF73BFD0020FFF7D4F90020B5E74F
:1044900028000010583500100C0000109C0000107F
:1044A00090020010A0320010DE5E000070B51A4DC0
:1044B00080B11A4A128890421FD8194A02EB800034
:1044C00050F8044CCCB1A17084F824102868A042A4
:1044D00005D014E028688170286880F824101148FD
:1044E00040688078884215D90E482968FFF706FD94
:1044F00029680120487000200AE0FF2070BD204696
:10450000FFF722FD6078012804D10648FFF70AFA78
:10451000FFF790F9002070BD0C000010DE5E000077
:10452000583500109C00001002480068002800D098
:10453000C07870470C00001010B5002804D0FFF7B9
:104540006BFBFFF799F9402010BD000010B5134C2C
:10455000207860B91248400705D112480168104818
:10456000FFF71CFA08B1852010BDFFF7B7FD0E4913
:10457000FF2009688870207858B900210B4800F0A6
:104580005DF80B49086000210A4800F001F90A496A
:104590000860012020700020607010BD0400001031
:1045A00068360010005F00000C000010E05E0000A4
:1045B00050350010485F00005435001070B50F4DA5
:1045C000687808B1002070BD0D4C206890F8241068
:1045D0000020FFF76BFF2068C178FF2903D1816AB3
:1045E000203181F30988616811B960600020206082
:1045F000FFF7DAFD01206870E4E700000400001016
:104600000C00001070B5FFF767F80446FFF75CF880
:104610000849094E0D686D1C48B1FFF75DF8A042CE
:1046200000D204463068401C05FB004070BD306875
:10463000FAE700008C5F00001C00001010B50400B9
:1046400005D0216819B1606808B102780AB100206C
:1046500010BD8900103189B2FFF7FEF9606810BD06
:104660003EB504000D464FF0800012D0217801299C
:104670000FD12846FFF7D0FA0246204601A9FFF7DE
:1046800071FA012801D0102003E00DB1402000E0B4
:104690000020DDE9011203B030BD10B5002804D0C0
:1046A00004680CB1207808B1002010BD2046FFF747
:1046B000D5FA204610BD10B5FFF748F910B10178C2
:1046C000032901D0802010BDFFF7D0FAFF2801D0C8
:1046D000002010BD812010BD70B50D46FFF736F9E2
:1046E000040002D02078032801D0802070BD284625
:1046F000FFF792FA01462046FFF724FB012803D07A
:10470000FF2804D0002070BD0DB1C12070BD8120F4
:1047100070BD10B5002807D0046824B1207810B906
:10472000B1F5803F01DB002010BD89B22046FFF7C4
:1047300059FC204610BD10B5FFF708F910B10178FB
:10474000022901D0802010BD4188A1F57F42FF3AA7
:1047500003D0FFF767FC002010BD812010BD70B5AD
:104760000D46FFF7F3F804004FF0FF300DD021782D
:1047700002290AD12846FFF74FFA01462046FFF7E3
:1047800067FC012802D06088401C70BD002070BD0D
:1047900070B50E46040029D0206838B3606810F167
:1047A000030F23DB032821DCE16829B11048FEF761
:1047B000AAFF05001AD000E000256068E168001D2E
:1047C00040EA012133462A462068FFF76DFD40B1DB
:1047D000084901EB8000084950F8040C826A5163D3
:1047E00070BD1DB129460248FFF788F8002070BD52
:1047F00068360010583500104D36000010B5FFF730
:1048000093FE002804D0034901EB800050F8040C0B
:1048100010BD00005835001010B5FFF721FD18B18C
:10482000C18C19B1C46A02E0802010BD0024C07898
:10483000FFF77EFDFF2806D01CB121460348FFF795
:104840005DF8002010BD812010BD0000683600100A
:1048500010B5FFF77BF820B141690A68016910467D
:1048600010BD0020014610BD2DE9F041134E7468C3
:10487000002C1CD0A068124F401E4FF00108A06011
:1048800012E0254624687460002229463868FEF745
:104890009AFD10B10420FBF730FD6879012808D09B
:1048A00085F80480002C02D0A0680028E9D0BDE87B
:1048B000F0812846E968FFF7DDFCF3E7040000100B
:1048C0005035001010B500290AD00878002807D00C
:1048D00005487844FCF766F9002801D0002010BD97
:1048E0000248784410BD0000CE170000C617000033
:1048F000000000000000000030313233343536371C
:104900003839414243444546403058003031323313
:104910003435363738396162636465664030780013
:104920000400000800000000000000020001000078
:10493000100000000200010052000400E91C000009
:10494000E51C0000C51A0000AD1C0000051B00009E
:10495000251C0000E51B0000651C0000D9190000A3
:10496000F9160000E9190000000000000000000036
:104970000000000000000000000000000000000037
:104980000000000000000000000000000000000027
:104990000000000000000000000080018001800194
:1049A00080018001800180018001800180018001FF
:1049B00080018001000000008001800100000000F3
:1049C000000000000000000000000000CC00CC004F
:1049D000CC00CC00CC00CC000000000000000000A7
:1049E00000000000000000000000000000000000C7
:1049F00000000000000000000000000000000000B7
:104A000000000000600C600C600C30063006FE1FD9
:104A1000FE1F300638071803FE1FFE1F1803180379
:104A20008C018C018C01000000008000E003F80F75
:104A30009C0E8C1C8C188C009800F801E007800EEE
:104A4000801C8C188C189C18B80CF00FE0038000A8
:104A500080000000000000000000000000000E18B0
:104A60001B0C110C11061106110311039B018E0181
:104A7000C038C06C60446044304430441844186C02
:104A80000C380000000000000000E001F0033807CF
:104A9000180618063003F001F000F8009C310E33C0
:104AA000061E061C061C063FFC73F02100000000D9
:104AB0000000000000000000000000000C000C00DE
:104AC0000C000C000C000C000000000000000000B6
:104AD00000000000000000000000000000000000D6
:104AE0000000000000000000000000020003800140
:104AF000C000C000600060003000300030003000B6
:104B0000300030003000300060006000C000C000A5
:104B10008001000300020000000020006000C000CF
:104B20008001800100030003000600060006000665
:104B30000006000600060006000300038001800155
:104B4000C000600020000000000000000000000025
:104B500000000000C000C000D806F807E0013003E4
:104B60003807000000000000000000000000000006
:104B70000000000000000000000000000000000035
:104B80000000000080018001800180018001FC3F65
:104B9000FC3F800180018001800180010000000055
:104BA0000000000000000000000000000000000005
:104BB00000000000000000000000000000000000F5
:104BC00000000000000000000000800180010001E2
:104BD0000001800000000000000000000000000054
:104BE00000000000000000000000000000000000C5
:104BF000E007E007000000000000000000000000E7
:104C000000000000000000000000000000000000A4
:104C10000000000000000000000000000000000094
:104C200000000000000000000000C000C000000004
:104C300000000000000000000000000C000C000656
:104C400000060006000300030003800380018001CA
:104C50008001C000C000C0006000600000000000D3
:104C600000000000000000000000E003F007380E24
:104C7000180C0C180C180C180C180C180C180C1814
:104C80000C180C18180C380EF007E0030000000098
:104C90000000000000000000000000018001C001D1
:104CA000F00198018801800180018001800180016C
:104CB00080018001800180018001800100000000EE
:104CC00000000000000000000000E003F80F180CD6
:104CD0000C180C1800180018000C000600038001C6
:104CE000C000600030001800FC1FFC1F0000000026
:104CF00000000000000000000000E001F807180EAE
:104D00000C0C0C0C000C0006C003C007000C0018B3
:104D100000180C180C18180CF807E003000000002D
:104D200000000000000000000000000C000E000F5A
:104D3000000F800DC00C600C600C300C180C0C0CBB
:104D4000FC3FFC3F000C000C000C000C00000000BD
:104D500000000000000000000000F80FF80F18002D
:104D600018000C00EC03FC071C0E001C00180018B7
:104D700000180C181C0C180EF807E00300000000C7
:104D800000000000000000000000C007F00F381C09
:104D9000181818000C00CC03EC0F3C0E1C1C0C184F
:104DA0000C180C18181C380EF007E0030000000067
:104DB00000000000000000000000FC1FFC1F000CB1
:104DC00000060006000380038001C001C000E0006F
:104DD0006000600070003000300030000000000013
:104DE00000000000000000000000E003F007380EA3
:104DF000180C180C180C3806F007F007180C0C18D3
:104E00000C180C180C18380CF80FE0030000000008
:104E100000000000000000000000E003F007380E72
:104E20001C0C0C180C180C181C1C381EF81BE01954
:104E30000018000C000C1C0EF807F0010000000028
:104E40000000000000000000000000000000000062
:104E50000000000080018001000000000000000050
:104E60000000000000000000800180010000000040
:104E70000000000000000000000000000000000032
:104E80000000000080018001000000000000000020
:104E9000000000000000000080018001000100010E
:104EA0008000000000000000000000000000000082
:104EB00000000000000000000010001C800FE00354
:104EC000F8001800F800E003800F001C001000003C
:104ED00000000000000000000000000000000000D2
:104EE0000000000000000000F81F000000000000AB
:104EF000F81F00000000000000000000000000009B
:104F000000000000000000000000000000000000A1
:104F1000000000000000000008003800F001C00799
:104F2000001F0018001FC007F00138000800000033
:104F300000000000000000000000E003F80F180C63
:104F40000C180C180018000C000600038001C000AB
:104F5000C000C00000000000C000C0000000000051
:104F6000000000000000000000000000E00718182A
:104F70000420C229224A114409440944094409224F
:104F80001113E20C024004201818E0070000000092
:104F90000000000000000000000080038003C00645
:104FA000C006C006600C600C301830183018F83F8E
:104FB000F83F1C700C600C6006C006C000000000CA
:104FC00000000000000000000000FC03FC0F0C0CBF
:104FD0000C180C180C180C0CFC07FC0F0C180C30DF
:104FE0000C300C300C300C18FC1FFC0700000000CB
:104FF00000000000000000000000C007F01F38386B
:105000001C300C7006600600060006000600060054
:10501000060006600C701C30F01FE0070000000066
:1050200000000000000000000000FE03FE0F060E5E
:1050300006180618063006300630063006300630F0
:10504000063006180618060EFE0FFE0300000000CC
:1050500000000000000000000000FC3FFC3F0C00CE
:105060000C000C000C000C00FC1FFC1F0C000C00C2
:105070000C000C000C000C00FC3FFC3F000000008A
:1050800000000000000000000000F83FF83F18009A
:105090001800180018001800F81FF81F1800180052
:1050A0001800180018001800180018000000000070
:1050B00000000000000000000000E00FF83F3C7816
:1050C0000E6006E007C00300030003FE03FE03C0FA
:1050D00007C006C00EC03CF0F83FE00F0000000023
:1050E000000000000000000000000C300C300C300C
:1050F0000C300C300C300C30FC3FFC3F0C300C30D2
:105100000C300C300C300C300C300C300000000037
:10511000000000000000000000008001800180010C
:105120008001800180018001800180018001800177
:105130008001800180018001800180010000000069
:10514000000000000000000000000006000600064D
:10515000000600060006000600060006000600061F
:105160000006180618063807F003E00100000000EA
:105170000000000000000000000006300618060CC9
:10518000060606038601C60066007600DE008E0174
:1051900006030606060C061806300660000000002E
:1051A00000000000000000000000180018001800B7
:1051B000180018001800180018001800180018002F
:1051C0001800180018001800F81FF81F0000000051
:1051D000000000000000000000000EE01EF01EF0C5
:1051E0001EF036D836D836D836D866CC66CC66CCE3
:1051F000C6C6C6C6C6C6C6C686C386C300000000ED
:10520000000000000000000000000C301C303C30AA
:105210003C306C306C30CC30CC308C310C330C33B7
:105220000C360C360C3C0C3C0C380C3000000000EA
:1052300000000000000000000000E007F81F1C381C
:105240000E70066003C003C003C003C003C003C0E8
:1052500003C006600E701C38F81FE0070000000055
:1052600000000000000000000000FC0FFC1F0C38D4
:105270000C300C300C300C300C18FC1FFC070C00F0
:105280000C000C000C000C000C000C0000000000D6
:1052900000000000000000000000E007F81F1C38BC
:1052A0000E70066003E003C003C003C003C003C068
:1052B00007E006630E3F1C3CF83FE0F700C000002B
:1052C00000000000000000000000FE0FFE1F063876
:1052D0000630063006300638FE1FFE0706030606B7
:1052E000060C06180618063006300660000000009E
:1052F00000000000000000000000E003F80F1C0C9C
:105300000C180C180C001C00F803E00F001E0038ED
:10531000063006300E301C1CF80FE00700000000BD
:1053200000000000000000000000FE7FFE7F800102
:105330008001800180018001800180018001800165
:105340008001800180018001800180010000000057
:10535000000000000000000000000C300C300C3099
:105360000C300C300C300C300C300C300C300C305D
:105370000C300C300C301818F81FE007000000004B
:10538000000000000000000000000360063006304E
:1053900006300C180C180C18180C180C380E3006A7
:1053A0003006700760036003C001C0010000000008
:1053B000000000000000000000000360C361C36142
:1053C000C3616633663366336633663366336C1B9C
:1053D0006C1B6C1B2C1A3C1E380E380E0000000093
:1053E000000000000000000000000FE00C7018300A
:1053F0003018700C600EC00780038003C003E00605
:10540000700C301C18180C300E6007E00000000013
:105410000000000000000000000003C006600C3027
:105420001C383818300C6006E007C003800180018A
:105430008001800180018001800180010000000066
:1054400000000000000000000000FC7FFC7F006006
:1054500000300018000C000600038001C00060004E
:10546000300018000C000600FE7FFE7F00000000E8
:1054700000000000000000000000E003E003600006
:10548000600060006000600060006000600060001C
:10549000600060006000600060006000600060000C
:1054A0006000E003E0030000000030003000600016
:1054B00060006000C000C000C000C0018001800129
:1054C0008001000300030003000600060000000046
:1054D00000000000000000000000E003E003000303
:1054E00000030003000300030003000300030003A4
:1054F0000003000300030003000300030003000394
:105500000003E003E003000000000000C001C00150
:1055100060036003600330063006180C180C0000AE
:10552000000000000000000000000000000000007B
:10553000000000000000000000000000000000006B
:10554000000000000000000000000000000000005B
:1055500000000000000000000000FFFFFFFF00004F
:10556000000000000000000000000C000C000C0017
:105570000C000C000C000000000000000000000007
:10558000000000000000000000000000000000001B
:10559000000000000000000000000000000000000B
:1055A00000000000F003F8071C0C0C0C000FF00FBB
:1055B000F80C0C0C0C0C1C0FF80FF018000000007D
:1055C0000000000000000000000018001800180093
:1055D00018001800D803F80F380C181818181818E5
:1055E000181818181818380CF80FD8030000000005
:1055F00000000000000000000000000000000000AB
:1056000000000000C003F007300E180C180018004E
:1056100018001800180C300EF007C003000000003E
:105620000000000000000000000000180018001832
:1056300000180018C01BF01F301C18181818181874
:10564000181818181818301CF01FC01B0000000094
:10565000000000000000000000000000000000004A
:1056600000000000C003F00F300C1818F81FF81FDE
:10567000180018003818301CF00FC0070000000098
:1056800000000000000000000000800FC00FC000FC
:10569000C000C000F007F007C000C000C000C0009C
:1056A000C000C000C000C000C000C000000000007A
:1056B00000000000000000000000000000000000EA
:1056C00000000000E00DF80F180E0C0C0C0C0C0C78
:1056D0000C0C0C0C0C0C180EF80FE00D000C0C0C44
:1056E0001C06F807F0010000000018001800180060
:1056F00018001800D807F80F381C181818181818B0
:105700001818181818181818181818180000000079
:1057100000000000000000000000C000C000000009
:1057200000000000C000C000C000C000C000C000F9
:10573000C000C000C000C000C000C00000000000E9
:1057400000000000000000000000C000C0000000D9
:1057500000000000C000C000C000C000C000C000C9
:10576000C000C000C000C000C000C000C000C00039
:10577000C000F8007800000000000C000C000C00D5
:105780000C000C000C0C0C060C038C01CC006C0003
:10579000FC009C018C030C030C060C0C00000000A8
:1057A00000000000000000000000C000C000C000B9
:1057B000C000C000C000C000C000C000C000C000E9
:1057C000C000C000C000C000C000C0000000000059
:1057D00000000000000000000000000000000000C9
:1057E000000000007C3CFF7EC7E383C183C183C10E
:1057F00083C183C183C183C183C183C10000000011
:105800000000000000000000000000000000000098
:10581000000000009807F80F381C181818181818FE
:105820001818181818181818181818180000000058
:105830000000000000000000000000000000000068
:1058400000000000C003F00F300C181818181818CA
:10585000181818181818300CF00FC00300000000BA
:105860000000000000000000000000000000000038
:1058700000000000D803F80F380C18181818181872
:10588000181818181818380CF80FD8031800180032
:1058900018001800180000000000000000000000C0
:1058A00000000000C01BF01F301C18181818181832
:1058B000181818181818301CF01FC01B00180018F2
:1058C0000018001800180000000000000000000090
:1058D00000000000B007F00370003000300030001E
:1058E0003000300030003000300030000000000098
:1058F00000000000000000000000000000000000A8
:1059000000000000E003F003380E180C3800F0032C
:10591000C007000C180C380EF007E0030000000070
:105920000000000000000000000000008000C00037
:10593000C000C000F007F007C000C000C000C000F9
:10594000C000C000C000C000C00780070000000009
:105950000000000000000000000000000000000047
:105960000000000018181818181818181818181817
:10597000181818181818381CF01FE019000000003B
:105980000000000000000000000000000000000017
:10599000000000000C18180C180C180C300630060B
:1059A0003006600360036003C001C0010000000016
:1059B00000000000000000000000000000000000E7
:1059C00000000000C141C141C3616363636363635D
:1059D0003636363636361C1C1C1C1C1C00000000DB
:1059E00000000000000000000000000000000000B7
:1059F000000000001C38381C300C6006C003C003D7
:105A0000C003C0036006300C381C1C3800000000C6
:105A10000000000000000000000000000000000086
:105A2000000000001830301830187018600C600C3E
:105A3000E00CC006C0068003800380038001800163
:105A4000C001F00070000000000000000000000035
:105A500000000000FC1FFC1F000C0006000380017A
:105A6000C000600030001800FC1FFC1F0000000098
:105A70000000000000000000000000038001C000E2
:105A8000C000C000C000C000C00060006000300066
:105A900060004000C000C000C000C000C000C000E6
:105AA00080010003000000000000800180018001EF
:105AB00080018001800180018001800180018001DE
:105AC00080018001800180018001800180018001CE
:105AD000800180018001000000006000C000C00162
