:020000040000FA
:10000000C02F0010FD0100000502000007020000E3
:10001000090200000B0200000D02000000000000B9
:10002000000000000000000000000000811D000032
:10003000110200000000000071160000A51D000064
:100040001702000017020000511F000017020000F5
:10005000170200001702000017020000170200003C
:10006000170200001702000017020000170200002C
:1000700017020000B5160000170200009D1A0000CC
:10008000170200001702000017020000170200000C
:1000900017020000170200001702000017020000FC
:1000A00017020000170200001D0C000017020000DC
:1000B00017020000170200001702000017020000DC
:1000C00017020000170200001702000000F002F8FB
:1000D00000F081F814A696E8000CB244B344DA4567
:1000E00001D100F078F8BAE80F000FA696E83000CA
:1000F000A5EB040504EB0607AAEB0704A7F101072B
:100100004FEA15154FEA3414A4F10104AC4201D3AF
:1001100000F061F813F0010F18BFFB1A43F0010360
:1001200000F001F8DBE71847F85F000018600000F6
:10013000103A24BF78C878C1FAD8520724BF30C813
:1001400030C144BF04680C60704700007047000075
:100150000023002400250026103A28BF78C1FBD8D0
:10016000520728BF30C148BF0B6070476E2900F0AE
:10017000A581702900F07282692900F063816429E9
:1001800000F06081752900F05D816F2900F0088220
:10019000782900F056820368DB0928BF41F080010E
:1001A000632900F02D84732900F03284E32900F0E4
:1001B0003D84F32900F04284002070471FB500F011
:1001C000C4FC04000020002104F030FC401C6060EE
:1001D0001FBD10B510BD00F093FC114603B401F033
:1001E0001DFF03BCFFF7EAFF02F046FE00F0B2FC81
:1001F00003B4FFF7EEFF03BC00F0FAFC09488047A8
:1002000009480047FEE7FEE7FEE7FEE7FEE7FEE7F8
:10021000FEE7FEE7FEE7FEE704480549034A054B13
:1002200070470000711E0000CD000000C02D0010BE
:10023000C02F0010C02D00100FB41CB50C0007AA71
:10024000009007D04142A14202D32044401E01E069
:100250004FF0FF30074B7B4469460190069800F051
:10026000AAFB0020002C01D0009908701CBC5DF88E
:1002700014FB00008307000070B504468569006820
:10028000C10601D5302600E02026C00707D070BD8A
:10029000D4E9012130469047206A401C20626D1E3F
:1002A000F6D570BD70B5044685690078C00707D1E2
:1002B00070BDD4E9012120209047206A401C2062B3
:1002C0006D1EF6D570BD09684A0501D540B270476C
:1002D000C905FCD500B2704709684A0501D5C0B20E
:1002E0007047C905FCD580B2704702F0FF0343EAAE
:1002F000032242EA024200F0D8BA7047FFFFFFFF34
:1003000053EA020C00F069802DE9F04B4FF0000633
:10031000002B1FBFB3FA83F503FA05F424FA05F6A0
:100320005E4012BF1643B2FA82F502FA05F4C5F137
:1003300020051EBF22FA05FC44EA0C04203556EACB
:10034000044C4FEA144418BF641C4FF000084FF0EF
:100350000009904271EB030C39D3002919BFB1FA9F
:1003600081F701FA07F6B0FA80F700FA07F6C7F14D
:1003700020071EBF20FA07FC46EA0C062037B6FB12
:10038000F4FCA7EB0507103F07F01F0BCBF120068D
:100390002CFA06F60CFA0BFB44BFB3460026202FBE
:1003A000A4BF5E464FF0000B5BEA060C08BF4FF09F
:1003B000010B19EB0B0948EB0608ABFB027C06FBB3
:1003C00002CC0BFB03CCC01B71EB0C01C1E70B464D
:1003D000024641464846BDE8F08B13B5084318BFB6
:1003E0004FF0FF300146AFF30080BDE81C4070477E
:1003F00070B50C460546012A05D02878800600D540
:10040000EA69002302E0012305E05B1C934202D26B
:10041000E05C0028F9D1A869E618C01AA861286A2A
:10042000184428622846FFF727FF04E0D5E9012198
:1004300014F8010B9047B442F8D32846FFF732FF77
:1004400070BD00002DE9F0410646002410687529B2
:10045000314616A510D0FFF736FF002802DA4042D9
:1004600013A507E031688A0701D512A502E0490704
:1004700004D511A5012401E0FFF72EFF00210A2277
:1004800006F1240709E0B0FBF2FCB0FBF2F302FB3B
:100490001C00303078541846491C0028F3D12346FC
:1004A0002A463046BDE8F04100F027BA00000000BF
:1004B0002D0000002B0000002000000011680268E1
:1004C000006A530501D508700AE0D30501D50880FC
:1004D00006E0130603D5C217C1E9000200E0086078
:1004E000012070472DE9FF5F15468A460446DFF874
:1004F000AC80F8440027D8E900103E46CDE9001052
:1005000010E03AF816106A4602A800F09BFA411C67
:1005100007D02178890603D5E269391891420DD8B0
:100520000744761C2078800602D5E069B84205DDD4
:10053000AE42E6DB3AF816000028E2D1A069C01B03
:10054000A0612046FFF798FED8E90010CDE9001021
:10055000002017E03AF818106A4602A800F072FA74
:10056000B0F1FF3F81460BD000250DF1080B05E0EF
:10057000D4E901211BF8050090476D1C4D45F7D3C8
:1005800008F10100B0428046E4DB206A3844206272
:100590002046FFF787FEBDE8FF9F00006245000090
:1005A00070B5044621461068FFF796FE002104F15D
:1005B000240505E000F007023032C0086A54491CE7
:1005C0000028F7D12068002308A2050708D500F00D
:1005D0002000084304D0E069012305A2401EE06129
:1005E0002046BDE8704000F088B90000000000001F
:1005F00030000000F0B40D460188090502D51B4CFF
:100600007C4402E0194C7C440E34002100F12403A8
:1006100005E002F00F061209A65D5E54491C002A8F
:10062000F7D102780023120704D5702D06D009B146
:10063000022311342246F0BC00F05FB901231034CC
:10064000F8E770B504460D4621461068FFF744FEF2
:10065000024629462046BDE87040CBE70368126891
:1006600043F0200303600823C361C3E75C44000038
:100670002DE9F05F894604464FF0000ADFF874B1B7
:10068000FB44C0F820A02046E1688847002874D0C9
:10069000252806D0D4E901219047206A401C206219
:1006A000F1E700265F462046E16888472028054696
:1006B00007DB312D05D2781910F8200C08B106435C
:1006C000F1E7B00701D526F00406C4F81CA0002706
:1006D000C4F818A02A2D09D0284604F09FF938B391
:1006E00004EB8708303DC8F8185019E059F8041B8E
:1006F000204604EB87029161E1688847012F054697
:1007000018D1E069002820DA26F020061DE0D8F88C
:10071000180000EB800005EB40003038C8F81800E6
:100720002046E1688847054604F078F90028EED1B4
:10073000012F0AD02E2D08D12046E16888477F1C62
:100740000546022F46F02006C4DBA069002803DA24
:10075000404246F00106A061F00701D026F01006E5
:100760006C2D0BD0682D09D04C2D39D06A2D35D089
:10077000742D35D07A2D33D016E038E0E1682F465D
:1007800020468847B842054609D16C2F26D04FF441
:100790008060E168064320468847054604E06C2FE8
:1007A0001AD04FF4807006430DB3A5F1410019280B
:1007B00002D8203546F400664A462946204626607F
:1007C0004E46FFF7D3FC80B101280BD0F61D26F072
:1007D000070000F1080956E74020E4E78020D8E749
:1007E0000020D6E706F104094DE7284652E7206AC3
:1007F000BDE8F09F0444000030B505460B462A468C
:1008000013F8014B12F8010B08B1A042F8D01CB14B
:10081000002802D06D1CF1E7284630BD032A40F2C3
:10082000308010F0030C00F0158011F8013BBCF192
:10083000020F624498BF11F801CB00F8013B38BFAA
:1008400011F8013BA2F1040298BF00F801CB38BFB8
:1008500000F8013B11F0030300F01881083AC0F0E2
:10086000088051F8043B083A51F804CBA0E808107E
:10087000F5E7121D5CBF51F8043B40F8043BAFF3B1
:100880000080D20724BF11F8013B11F801CB48BF0B
:1008900011F8012B24BF00F8013B00F801CB48BF41
:1008A00000F8012B70474FF0000200B51346944644
:1008B0009646203922BFA0E80C50A0E80C50B1F1B8
:1008C0002001BFF4F7AF090728BFA0E80C5048BFCC
:1008D0000CC05DF804EB890028BF40F8042B08BF6A
:1008E000704748BF20F8022B11F0804F18BF00F866
:1008F000012B70477047704770472DE9F0470D4650
:1009000099469246044600F124080168880604D5F9
:10091000E06921F01001216000E00120A84201DD22
:10092000471B00E00027A1697A1902EB0900081AA9
:10093000A0612078C00602D42046FFF79DFC002667
:1009400008E0D4E901211AF806009047206A401C0B
:10095000761C20624E45F4DB2078C0060AD520467E
:10096000FFF78AFC06E0D4E9012130209047206A95
:10097000401C2062381EA7F10107F4DC07E0D4E92F
:10098000012118F805009047206A401C2062281EAB
:10099000A5F10105F3DC2046FFF784FC2078000672
:1009A00002D50220BDE8F0870120FBE701694A1C5F
:1009B00002610878704700B58FB0CDE901310021A0
:1009C000059105497944CDE9031011466846FFF7C2
:1009D0004FFE0FB000BD0000E5FFFFFFD1E900238F
:1009E0009A4202D2531C0B601070704710B54369D5
:1009F00013B1AFF3008001E0FFF7FAFC012010BD56
:100A0000127800F124010A7000224A700122EDE7F9
:100A100011684FF0FF32E9E710B5436913B1AFF346
:100A2000008001E0FFF75EFD012010BD128800F19B
:100A3000240182840022C2840122EDE711684FF074
:100A4000FF32E9E72DE9F04116460C46054600F075
:100A50004FF8036893F80101012807D0FF2C12D842
:100A6000185D80B101202C70BDE8F081D3F807013A
:100A70003246214603F20713C7182846BC46BDE894
:100A8000F041002360474FF0FF30EDE710B5203A0A
:100A9000C0F00B80B1E81850A0E81850B1E8185029
:100AA000A0E81850203ABFF4F5AF5FEA027C24BFFB
:100AB000B1E81850A0E8185044BF18C918C0BDE8E4
:100AC00010405FEA827C24BF51F8043B40F8043BAD
:100AD00008BF7047D20728BF31F8023B48BF11F862
:100AE000012B28BF20F8023B48BF00F8012B7047BC
:100AF00010B500F02AF8001D10BD00BF313F000006
:100B0000754600F031F8AE4605006946534620F0C0
:100B10000700854618B020B5FFF77EFBBDE82040F2
:100B20004FF000064FF000074FF000084FF0000BA9
:100B3000AC46ACE8C009ACE8C009ACE8C009ACE818
:100B4000C00921F007018D46704710B500F00CF880
:100B5000203010BD10B50446AFF300802046BDE83C
:100B60001040FFF745BB00000048704750000010E0
:100B70004FF0013C50F8042B51F8043B9A4221D12C
:100B8000A2EB0C03934313EACC1317D150F8042BB8
:100B900051F8043B9A4215D1A2EB0C03934313EA9C
:100BA000CC130BD150F8042B51F8043B9A4209D1D5
:100BB000A2EB0C03934313EACC13DBD04FF00000FD
:100BC000704700BFD01A01BAB1FA81F101F01801E3
:100BD00022FA01F0CB40DBB2C0B2C01AC1F1200151
:100BE0002CFA01F3D11A914311EAC311E6D17047EF
:100BF00001491820ABBEFEE726000200012101FAE0
:100C000000F00549C04351E8002F024041E80023AD
:100C1000002BF8D1704700BF7C0200102DE9F84F7F
:100C2000364BDFF8DCA04FF0010B40F6FF790026D1
:100C3000002703F58675A02E08BFBDE8F88F186859
:100C40000BFA07F4204254D05868204210D09C6020
:100C50000AEB0608D8E9020188421CD1F8B2FFF776
:100C6000CDFFD8F81010254B002942D001200FE00D
:100C7000D86820423DD0002068602860F8B2FFF7B5
:100C8000BDFF1E4B0AEB06001C61016989B30220FF
:100C900088471A4B2DE0401A484528BF4846014472
:100CA000C8F80C10296849010BD55AF8061045F808
:100CB0000C1C2A68C2F3814200FA02F211444AF87D
:100CC0000610296809010BD5D8F8041045F8081C4E
:100CD0002A68C2F3415200FA02F21144C8F8041023
:100CE000296821EA090108432860686840F001008A
:100CF00068602035143601379DE700BF0040005082
:100D000080020010B0B500F09CFB00F040FC03F046
:100D1000E1F92F4D4FF4963424B1288803F0CAF935
:100D2000013CF9E7294800F0A4FB0020B0BD00BF5A
:100D30002DE9F843304F14467A68002A40D0558890
:100D40001688D2F80480D2F80C9032462B4600F078
:100D5000E3FA00F01CFCF11DA4EB0800C9084843AD
:100D600000FB059403F0B6F97868DFF898954FF02A
:100D70000008418888451CD2002501888D4214D284
:100D8000207805F00706F040C007484618BFB81C99
:100D9000008803F08FF97868072E04D101880139A3
:100DA0008D4218BF01340135E7E708F1010801342D
:100DB000DFE7064800210024426A1320904701E043
:100DC0004FF0FF342046BDE8F88300BF9C4A000086
:100DD00004000010F8B5084F14460D460646227868
:100DE00042B130462946FFF7A3FF786801340088F6
:100DF0000644F4E70020F8BD1C0100107CB501207A
:100E000000F0E8FADFF85C4F0026002006210022FF
:100E100000230096A04700200621012200F0E6FAF8
:100E2000DFF8C45400F0A2FB0020062100F06CFBA8
:100E30000020072100F068FB0020082100F064FB7F
:100E40000020092100F060FB00200721012200F0B2
:100E5000CDFA00F08BFB002007210122A8470020DB
:100E600006210022A847DFF8844470200121A04712
:100E700000200121A04700F079FB0020062100227C
:100E8000A84773200121A04700200021A047044665
:100E900000F06CFBDFF8580481680569466A0020A1
:100EA00088470220A847D048D049B047B4B90020AD
:100EB00003F0EAF813200121B047DFF8385473201B
:100EC000A8470020A8470020A84704460020A847BC
:100ED000054613200021B04745EA0424DFF8C0048A
:100EE000472C40F0C7800121DFF8B8440170EA20A8
:100EF0000021A047EB202021A047EC200C21A04797
:100F0000ED20C721A047E8203821A047E920102183
:100F1000A047F1200121A047F2201021A047402046
:100F20000121A04741200021A04742200021A047E5
:100F300043201021A04744200E21A0474520242112
:100F4000A04746200421A04747205021A047482021
:100F50000221A04749201321A0474A201921A04778
:100F60004B201921A0474C201621A04750201B21BF
:100F7000A04751203121A04752202F21A0475320C4
:100F80003F21A04754203F21A04755203E21A047A4
:100F900056202F21A04757207B21A0475820092108
:100FA000A04759200621A0475A200621A0475B20D0
:100FB0000C21A0475C201D21A0475D20CC21A0472B
:100FC0001B201B21A0471A200121A04724202F21EC
:100FD000A04725205721A04723208821A04718207B
:100FE0003621A04719200121A04701200021A04758
:100FF0001F208821A047C04DC820A8471F2082215C
:10100000A0473220A8471F209221A0473220A8479E
:101010001F20D221A0473220A84717205521A047E2
:1010200000200021A0472F201121A04731200021BE
:10103000A04732200021A04728203821A047C820FF
:10104000A84728203C21A0471620A821A0470E2011
:101050000021A0470F200021A04710200121A04718
:1010600011204021A04712200021A0471320002179
:10107000A04732E10021CB4D017001204FF4807177
:10108000A84702204FF4E061A84704200021A847A8
:10109000082040F20721A84709200021A8470A207C
:1010A0000021A8470C200021A8470D200021A847B7
:1010B0000F200021A84710200021A847112000215F
:1010C000A84712200021A84713200021A8478A4ED4
:1010D000C820B047102041F2B021A84711200721B5
:1010E000A8473220B047122040F2BD11A847322055
:1010F000B04713204FF4A051A84729200E21A8473C
:101100003220B04720200021A84721200021A847F5
:1011100042F29350844243D045F20840844267D162
:10112000302040F60D31A847312041F62311A84761
:10113000322041F62641A847332042F21C61A847DD
:10114000342042F21941A847352040F60B51A847F8
:10115000362041F20601A84737204FF4C261A84764
:10116000382040F20671A84739204FF44171A84752
:101170003A2040F60561A8473B2040F60161A847A8
:101180003C204FF48771A8473D2040F20E51A847FC
:101190003E2040F20341A8473F2040F207614BE068
:1011A00030200021A847312040F20761A8473220B3
:1011B00040F20531A84735200021A847362041F2EA
:1011C0000461A84737204FF40171A8473820012156
:1011D000A847392040F20771A8473C200021A847C2
:1011E0003D200F2128E000BF0183080020BCBE0085
:1011F00030200621A847312040F20111A8473220B3
:101200000321A84735204FF48371A847362040F6C4
:101210000231A847372040F20231A847382040F277
:101220000771A84739200721A8473C204FF4C06127
:10123000A8473D2040F20B21A84750200021A84795
:101240005120EF21A84752200021A847532040F207
:101250003F11A84742F293504FF42741844245F290
:10126000084008BF4FF41C51844208BF4FF41C5182
:101270006020A84761200121A8476A200021A847D3
:1012800080200021A84781200021A847822000213A
:10129000A84783200021A84784200021A847852053
:1012A0000021A84790201021A84792200021A8479C
:1012B00093200321A84795204FF48871A8479720D1
:1012C0000021A84798200021A847032041F23801B7
:1012D000A847072040F23711A84704201C2101220B
:1012E00000F06CF800207CBDBD130000293B00001D
:1012F0009C4A0000013B0000312C0000014908809D
:101300000020704704000010254948600020704705
:1013100023494880002070472DE9F0410546C81850
:101320000C46A0F10108A818471E1D4800780128A6
:101330001DD11C4EC5F30F210220B047E9B2032096
:10134000B047C7F30F210420B047F9B20520B047DA
:10135000C4F30F210620B047E1B20720B047C8F31D
:101360000F210820B0475FFA88F1092014E0A4B2E9
:101370000C4E50202146B0471FFA88F15120B0474B
:10138000ADB252202946B047B9B25320B047202011
:101390002146B047212029463246BDE8F04110479A
:1013A0001C010010ED400000034A40011058C840E5
:1013B00000F00100704700BF14C00920012303FAA8
:1013C00001F11823002A0F4A08BF1C2343EA4010EA
:1013D00081507047044900280A6822F4004218BF6F
:1013E00002F500420A607047C4C00F40012340016B
:1013F0008B400449002A0A580CBF9A431A430A50EA
:10140000704700BF00C00920054806A10068C0F36E
:10141000015051F8200007490968B1FBF0F070470E
:10142000A8C10F40040000000100000002000000FD
:10143000080000000000001000210022002302F03C
:1014400027BF002000214FF4A072F023FFF764BFF4
:10145000016821F03001016001687047204602F008
:1014600089B9251D284602F04DBC6FF07F40FFF77B
:1014700045BF0021426A132010470323084006217C
:10148000B0600020009000F0BDB8044602F094BCAB
:1014900000EB800001EB8000294602F081BC0020B7
:1014A00060214A46FFF796BC00202146FFF792BC18
:1014B000FF20FFF72DBF56F8203000914046232132
:1014C000FEF7BABE4FF47A7002F0F2BC00EB4000B7
:1014D00009EBC00100202847DBF8140003F012B824
:1014E00006EB80010A69C9685269114239467047A2
:1014F000142002F0DDBCC0F848B0C06B02F0C8BEDA
:101500004FF0FF3102F0FEBF002202230096204779
:101510000022002300942847284603F0B7B900EBC7
:10152000800001EB80007047002021462A46FFF72B
:1015300051BC002021464246FFF74CBC00203946F2
:101540002246FFF747BC002060212246FFF742BC3D
:10155000074603F0E5B8336A4FF001090593336A93
:10156000012B70474FF0FF3001F076BB00200621C1
:10157000012228470222002300953047204601F02F
:10158000B5BF4FF480720023CDE9006520472220CB
:1015900002F07ABD044602F00FBC06F108074FF4D2
:1015A0007A71A1CFBD6100684843B0FBF1F002F051
:1015B0007FBC0121D0E909564769132028474FF025
:1015C0008051016070470BEB8001896809685BF806
:1015D0002030284600912321FEF72EBE3168C96ACB
:1015E000884270474FF47F00FFF792BE204602F01A
:1015F00089BB00210022002370474FF0FF31406972
:1016000002F080BFF0B500249E46184B0F460F290C
:1016100088BF0124C50003EB800045EA84050F293B
:1016200055F803C088BF103F0326FFB27F00BE40BD
:10163000BA402CEA0604EC50EC582243EA5045EA42
:101640000302146CB44314640EFA07F4156C2C43B3
:101650001464012202FA01F1059A012A826E14BF74
:1016600022EA0101114381660020F0BD00C0024062
:10167000EFF30980BFF36F8F0D4B1A6820E9F00F6D
:1016800010602DE908404FF0100080F3118802F03F
:10169000B9FC4FF0000080F31188BDE808401968DC
:1016A0000868B0E8F00F80F30988BFF36F8F7047C8
:1016B000A001001070B5304C01206568E061E906BA
:1016C00005D52E498871C96809B104208847A80644
:1016D00006D52A4801210171C16809B10220884755
:1016E000280647D525484169426A91421AD9C569F9
:1016F0009DB16B1CC3612B78266876070ED52668D2
:1017000016F4706F03D0266816F4706F06D0AE1C06
:10171000C6616D7843EA052300E0838D01324262A1
:101720009AB2A260026A914224D98369A5688BB1FA
:101730005E1C86611D70266876070BD5266816F438
:10174000706F03D0266816F4706F03D09E1C2D0AAC
:1017500086615D7001328A4202620BD1216821F0FC
:101760008001216000210170C16819B10120BDE82C
:101770007040084770BD00BF000002402401001007
:101780002DE9FE4FF04E8346307B820702D44FF0A6
:10179000FF3519E05FFA8BF7142F11D1E94C0025C2
:1017A0001C21606820F00200606006F11000656195
:1017B000FFF779F83571606840F00200606003E07F
:1017C000327922B16FF001052846BDE8FE8F6FF037
:1017D0000305132FF8D8DFE807F0710E800B0B0A12
:1017E0000A0A0A0A0A0A0A0A0A0A22616EABEBE727
:1017F0006FF00605E8E7D34A40F00400536823F091
:101800000203536000235361536823F004035360C1
:10181000307301203072506840F00200506000299F
:10182000B5D00D01FFF7F0FD4FEA001900200223AB
:101830004FF0020E4FF000080290FE2B00F20281E2
:101840000022501CA5EB080A5843B2F5807F10D047
:10185000B9FBF0F41146A5420DD04A1C1844A5422C
:10186000F3D9A5EB040CE245EFD99E460291A046C0
:10187000E7E70233E1E79E460A46B2495FFA8EF097
:101880000861086820F47F40086010020A6880B28E
:101890001043102F08600FD0B06835E0FFF7B4FD9B
:1018A000F0490A690968C1F30721D2B201315143F5
:1018B000B0FBF1F588E73185002585E7E94900F0BF
:1018C000FB0000254A6822F002024A603073B068CB
:1018D00020F0FF00B0604D6176E7E24940F004007F
:1018E0004A6822F002024A604A6842F004024A60F2
:1018F00001224A6130730222B06862F30700B060CF
:101900004A6842F002024A60C1B201293CD1CBF3DD
:10191000C141DFE801F002271B230020062100223D
:1019200000230090FFF76EFEB06820F4C0102AE09C
:10193000B068474A1040474A90427FF428AF0025DC
:101940000020002942D00621002241E04249022223
:10195000FFF793FDB06840F4801014E03E49084062
:10196000B06030E03C490022FFF787FD00200621EF
:101970000122FFF73BFD002006210122FFF71EFD9B
:10198000B06840F40020B060C1B202290CD13349E4
:101990000840B0605FEA8B2015D4002006210222A7
:1019A00003230090FFF72EFECBF30221052946D832
:1019B000AC48DFE801F00321131C102AFFF748FDB3
:1019C00021F0C00125E06FF00A05FDE606210122A5
:1019D000FFF7F4FCF8E60168012218E0FFF738FD94
:1019E00041F040010160016821F0800111E0FFF742
:1019F0002FFD41F0C0010CE0FFF72AFD21F040016E
:101A00000160016841F0800103E00168022262F395
:101A100005110160CBF305310A1F0C2A0CD80268AE
:101A2000013922F00F02114301604FEA4B306FF091
:101A3000090101EAE075C7E66FF00805C4E66FF03A
:101A40000705C1E6029AB8F1000F7FF416AF9EE6D3
:101A5000FF0018000100080001FFE7FF02FFDFFFA1
:101A6000C148C169007B400701EAE070704700BFD0
:101A700082B0BD48017942798079009B61F300030F
:101A80000093009962F341010091009960F3820193
:101A900000910098019002B0704700BF70B5714886
:101AA000C46904F003010162C168890717D5AE4912
:101AB0000B690A6A934212D98D695DB16B1C8B6107
:101AC0002B780668360706D5AE1C8E616D7843EA22
:101AD000052300E00B8D01320A6299B28160C16872
:101AE000490722D5A04982680B69CD69AB421CD950
:101AF0004B6953B15D1C4D611A7003681B0704D517
:101B00004B69120A5D1C4D611A70CB690A69013379
:101B10009342CB6109D100220A71426922F00F027F
:101B20004261096809B101208847E00708D08E4862
:101B300001214171016819B10220BDE870400847D8
:101B400070BD00BF00000340540100107CB5864CFE
:101B5000217BC90717D10025206004F110001C214A
:101B6000A571A580FEF79FFE7E4E00200721FFF79E
:101B700001FD00200821FFF7FDFC00200921FFF7EF
:101B8000F9FC0120207300207CBD00BFB0B5022805
:101B90002FD001282AD098BB33484FF40041304A57
:101BA00000240325C0F88010BFF34F8FBFF36F8F61
:101BB000136843F4806313602A4B5C615C621C60B1
:101BC0005C601C611D62684D136823F480631360C0
:101BD000AC71AC80C0F8801105F110001C21FEF73B
:101BE00062FE287B00F0FD0028730BE06FF0030419
:101BF00008E05D48017BCA0706D14FF0FF3401E0E1
:101C00006FF004042046B0BD8A074FF00004F9D4F9
:101C1000134A41F00201136843F480631360D2F861
:101C2000E43023F44013C2F8E430D2F8E43043F453
:101C30008013C2F8E4300B4A5461847184800173CC
:101C400003201062D068400701D59068FAE7064883
:101C50004FF400410024C0F880110160D2E700BFBA
:101C6000C4C00F400000034000E100E068B161B172
:101C70003D4B0246187B40075CBF4FF0FF3070477A
:101C8000187928B16FF0010070476FF004007047B9
:101C900010B5C3E904122649002001240F229871CF
:101CA0009C80C3E9060018620A6010BD68B161B18A
:101CB0002D4B0246187B40075CBF4FF0FF3070474A
:101CC000187928B16FF0010070476FF00400704779
:101CD00010B500200124C3E904101549C3E906200A
:101CE0000F2298719C8018620A6010BD50B149B1F2
:101CF00042B1B0B51C4C0346207B400705D44FF0E1
:101D0000FF30B0BD6FF004007047207910B16FF064
:101D10000100B0BDC4E904210549002001250F22BE
:101D2000A071A580C4E9063020620A60B0BD00BF82
:101D300014000340BCB50B4D002400200621FFF722
:101D4000E7FB00200721FFF7E3FB00200821FFF756
:101D5000DFFB00200921FFF7DBFB034804730020B1
:101D6000BCBD00BF051600005401001006207047DE
:101D70000048704702020A02000000000000000054
:101D8000074B19680868B0E8F00F80F30988BFF3C3
:101D90006F8F4FF0000080F311884EF00D0E7047EA
:101DA000A001001080B50548006802F0ADFC0128D4
:101DB00008BF80BDBDE8804002F0E4B910E000E05B
:101DC00010B5264C2168D4F8840001F0407100F071
:101DD0000300B1F1407F06D1DFE800F0020C2402DD
:101DE0002068204908E0DFE800F0021A2F02E06FC7
:101DF0001C492CE020681A49400080B20230226859
:101E0000A0FB01010023C2F307420132FEF778FA7A
:101E1000E26F0023D2B20132FEF772FA1BE0E06FEC
:101E20000F4914E02068104901EA0040216800F5DC
:101E30008030C1F307410131B0FBF1F0E16FC9B26D
:101E40000131B0FBF1F006E0E06F4FF40041C0B2A9
:101E50000130B1FBF0F00549086010BD88C00F40AB
:101E6000001BB70000093D000000FF7F00000010CC
:101E700034482021C0F8A011D0F8A011890603D55C
:101E8000D0F8A0114906FBD503212F4A5523C0F8ED
:101E900004110021C0F8A811C0F8AC110121C0F84C
:101EA0000C11C0F88420AA22C0F88C20C0F88C3015
:101EB000C0F88010C0F88C20C0F88C30D0F88810A2
:101EC0004901FBD50321C0F88010AA21C0F88C106D
:101ED0005521C0F88C10D0F8881001F04071B1F194
:101EE000407FF8D1232155220123C0F8A410AA2154
:101EF000C0F8AC10C0F8AC20C0F8A030C0F8AC10EE
:101F0000C0F8AC20D0F8A8104905FBD50321C0F8D3
:101F1000A010AA21C0F8AC105521C0F8AC10D0F820
:101F2000A81001F44071B1F5407FF8D107490422AF
:101F3000C0F8C4100021C0F8C811016862F30F3165
:101F40000160704700C00F4063000500DE87280471
:101F500004480168C90708BF70470121016001F00A
:101F6000B5BE00BF0080004010B5044601F0DEF8A9
:101F700030B120684FF0FF31BDE8104002F0C2BA26
:101F800010BD000010B50446006801F069FF21682B
:101F90001A4A0020142807D0135804309942F9D166
:101FA0001044002140F8041C10BD00BFF8B51249D0
:101FB000124F002604460660052E05D057F826006D
:101FC00058B150310136F7E701F0B0F868B101209F
:101FD00002F0ECF80546206008E00120012502F03F
:101FE000F0F847F82600206003E02568002D18BFB0
:101FF00001252846F8BD00BF20030010B0040010E2
:1020000010B5044601F092F838B120680021002292
:102010000023BDE8104002F03BB910BD704700003E
:102020002DE9F04F8BB08648007A012850D08448C3
:10203000FFF7E3FAFFF719FAFEF764FEFFF738FA45
:1020400081A200200021FEF7C5FE8448DFF810823F
:10205000DFF81092844E30250DF1090700F10804D5
:10206000782D21D06FF07F40302D764908BF08468B
:10207000FFF744F9002029464246FEF7ABFE2068F0
:102080003246302D0068009008BF4A4654F8083C9C
:1020900038462321FEF7D0F8002029463A46FEF7BD
:1020A00099FE14341835DBE7FFF79CFA6FA2002085
:1020B0009021FEF78FFE73A20020A821FEF78AFE72
:1020C0005F4CFFF796FA606902F0E2F80120207297
:1020D000DFF888B1624E4FF0FF3A00240DF1090598
:1020E0004FF000084FF0000901F018FCFFF730FA3C
:1020F000A0EB08016429C0F08B80F9074FF00001C4
:102100000DD014F001020AD1B9F1000F4FF0000216
:102110008046CA46C8BFA9F10102012100E04A4633
:10212000BB070CD514F0020309D1022A4FF00209B3
:1021300080469246B8BF02F10109012100E09146B4
:102140003A0711D514F008020ED109EB8901804637
:102150000BEB810189680A68643A0A600A68632A9D
:10216000DCBF64220A6001210F2C13D8102F11D379
:1021700009EB890141F2893380460BEB81018968C3
:102180000A6864320A600A689A42A4BF41F288323F
:102190000A600121780702D514F004003CD0B9B3DD
:1021A0002748FFF72AFA1AF101004FF0300416D041
:1021B000FFF75BF90AEB4A003021324601EBC0041D
:1021C000FFF772F90AEB8A00274AFFF7FCF9FFF7DD
:1021D0006FF9214600202A463024FEF7FBFD1948FE
:1021E000FFF78CF809EB4900324604EBC004FFF717
:1021F0005BF909EB89001B4AFFF7E5F9FFF758F98E
:10220000FFF792F90E48FFF7F4F9406902F040F841
:10221000FFF76EF93C4667E7094C00204FF0FF31AD
:102220002072606902F06EF9FFF71FF9FEF76AFD90
:102230006069FFF701F9FFF795F90BB0BDE8F08F82
:10224000B0000010C0C0C00041646A757374204FB4
:102250004E204475726174696F6E7300D85F000020
:1022600030600000E0600000E2600000552F443A5A
:1022700053656C656374204C2F523A41646A7573E0
:102280007400000043656E7465723A436F6E666950
:10229000726D00002DE9F04F85B0DFF868B104469B
:1022A0004FF0FF31FFF718F9FFF7DFF8FEF72AFDCF
:1022B000554DFF20A847DFF8548104EB84066C4697
:1022C00053A21421204658F82630FDF7B5FF554F8C
:1022D000002000212246B84753A200203021B847F1
:1022E00057A200204821B8474FF47F00A84758A2C2
:1022F00000207821B8470020A84708EB8600594AFB
:102300001421466820463368FDF796FF00206021BF
:102310002246B847DBF81400FFF78EF8DFF84C9A36
:1023200000254FF0000A01F0F9FAFFF711F9804695
:10233000401B642851D3F80724D01AF0010021D1A2
:1023400030684FF0FF310A3030603068B0F5805FA0
:10235000A4BF40F6FF703060FFF7BEF8FFF785F8C6
:102360000020FEF7D5FFFFF79AF833683D4A204674
:102370001421FDF761FFFFF7E6F8DBF81400FFF723
:102380005BF84546B80723D51AF0020020D1306823
:102390004FF0FF310A3830603068B0F1FF3FDCBFEA
:1023A00000203060FFF798F8FFF75FF80020FEF795
:1023B000AFFFFFF774F833682A4A20461421FDF76F
:1023C0003BFFFFF7C0F8DBF81400FFF735F8454690
:1023D000780702D51AF0040003D0FFF789F8BA464F
:1023E000A1E7DBF81400FFF78BF8FFF73EF8FEF7E4
:1023F00089FCDBF81400FFF71FF8FFF7B3F805B00E
:10240000BDE8F08FB000001011130000D85F00008D
:10241000536574202573205468726573686F6C640B
:1024200000000000D50D0000557365206A6F7973B8
:102430007469636B2055702F446F776E0000000045
:10244000746F2061646A7573742076616C756500C1
:1024500043656E74657220746F20636F6E66697277
:102460006D000000636000002DE9F04F8DB08848DA
:102470000079012856D08648FFF7BFF8FEF7F5FF30
:10248000FEF740FCFFF714F883A200200021FEF7BE
:10249000A1FC8648DFF81882DFF81892DFF818A24E
:1024A000DFF818B2864D30240DF1110600F1100747
:1024B000782C23D06FF07F40302C764908BF084637
:1024C000FEF71CFFFFF735F857E9010157F8103CFC
:1024D0002A4649690842504608BF4846302C0090B9
:1024E00008BF5A4630462321FDF7A6FE00202146AC
:1024F0003246FEF76FFC14371834D9E7FFF772F84D
:1025000070A200209021FEF765FC744A0020A821EB
:10251000FEF760FC5E4CFFF76CF8606901F0B8FEF6
:1025200001202071614EDFF88C91DFF88C814FF033
:10253000FF30002700254FF0000B039001F0EEF96B
:10254000824602F0EDF80446401B6428C0F0878004
:102550005FEACA704FF000000CD017F0010109D1FA
:10256000BBF1000F4FF000012546C8BFABF10101E0
:10257000012002E05946DDF80CB05FEA8A720CD502
:1025800017F0020209D102294FF0020B2546B8BF0D
:1025900001F1010B0120039102E0CDF80CB08B4654
:1025A000072F08D8BAF1080F05D35FFA8BF001F0B6
:1025B000EFFA012025465FEA4A7102D517F00401BF
:1025C00051D000284BD032484FF0FF31029540697E
:1025D00001F098FF4D46DDF80C90474630240DF190
:1025E000110819F101001AD0FEF73FFFFEF760FF56
:1025F00009EB490030212E4A01EBC004FEF754FFDD
:1026000009EB8900FEF76CFF2D4A08BF2946FEF74B
:1026100052FF2146002042463024FEF7DBFB1D48D6
:10262000FEF76CFE0BEB4B00214A04EBC004FEF7F7
:102630003BFF0BEB8B00FEF753FF204A08BF2946F8
:10264000FEF739FFFEF734FFFEF773FF1048FEF781
:10265000D0FF406901F01CFEA946029DB846FEF776
:1026600047FF57466AE70A4C00204FF0FF312071C0
:10267000606901F047FFFEF7F8FEFEF743FB606973
:10268000FEF7DAFEFEF76EFF0DB0BDE8F08F00BF7B
:10269000B0000010C0C0C0004163747561746F72F7
:1026A0007320436F6E74726F6C000000D85F00007F
:1026B000306000004A6000004E600000D260000000
:1026C000D460000055702F446E3A53656C65637496
:1026D000204C2F523A4F4E2F4F46460001610000CA
:1026E00090F8009028494FF0000B09EB890001EBAE
:1026F0008006264800EB8904E06BFEF701FFA06C22
:1027000058B1606D01284FF01C0008BF1820D6E9B1
:1027100003121150C4F848B0EEE7206E28B1FEF75E
:102720003CFFFD61C4F860B0E6E7184D4FF0FF31A3
:10273000286901F0E7FED4F83080D5F838A0286980
:10274000FEF77AFEB9F1000F16D0B9F1020F0ED0E4
:10275000B9F1010FD0D10E4840688045CCDC40F67D
:10276000B83082450CDB0BA001F0F6F8C4E708484E
:1027700080688045C0DC03E0054800688045BBDB1D
:10278000FEF70BFFFD61B7E7D85F0000B000001057
:10279000180000105741524E494E473A20536F6976
:1027A0006C2064727920627574206C69676874208B
:1027B000746F6F2068617273682E20576174657240
:1027C000696E6720736B6970706564210A00000090
:1027D0002DE9F04F91B0DFF80804DFF808641E21FE
:1027E000002300F1080200200792032B0AD006EB19
:1027F000830442F8080C42F8040C11600C320133D7
:102800002066F2E7002100204FF00009F1610890F6
:102810003162307B10BB7069FEF772FEFEF725FE59
:10282000FEF770FAFEF744FEDFF8BC23DFF8BC4386
:1028300000200021A047FEF7D5FE0FF2B4320020A1
:10284000A821A047DFF8C4230020C021A047706959
:10285000FEF7F2FD4FF0010986F80C904FF0FF30C3
:10286000DFF808A54FF0010B4FF00008049009AC09
:102870000590079F0025032D19D0706A57F8081C92
:10288000884211D1B06A57F8041C88420CD1F06A12
:102890003968884208D106EB8500FEF7AAFEC0F829
:1028A00060B0C06B01F0F4FC0C370135E3E701F0D8
:1028B00035F8FEF74DFE0899411A632940F2108160
:1028C000FA070ED05FEAC8710BD1F1694FF0010928
:1028D0000491F1690129A6BFF16901390021F16173
:1028E0000890B9070ED55FEA88730BD4F3694FF0EF
:1028F00001090493F369012BDABFF3690133022361
:10290000F36108903B070AD518F0080307D1FEF7DA
:1029100022FEA6BF336A013B002333620890B8F160
:102920000F0F09D8102F07D3FEF715FEDABF336A51
:102930000133022333620890F2B15FEAC8731BD1FE
:10294000336ACBB9F369BC46A54F03EB430357F891
:102950002330162B06DCF36903EB430357F82330CF
:10296000013300E00023F5694FF0010905EB45054F
:1029700047F825306746089000291ED55FEA88731E
:102980001BD4336ACBB9F369BC46954F03EB4303C1
:1029900057F82330012B06DBF36903EB430357F8A9
:1029A0002330013B00E01723F5694FF0010905EBE7
:1029B000450547F825306746089012B35FEAC873AB
:1029C0001FD1336A012B1CD1F369BC46844F03EB42
:1029D000430307EB83035B683A2B07DCF36903EBE4
:1029E000430307EB83035B68013300E00023F569D1
:1029F0004FF0010905EB450507EB850567466B6060
:102A00000890002922D55FEA88731FD4336A012B0E
:102A10001CD1F369BC46724F03EB430307EB8303FE
:102A20005B68012B07DBF36903EB430307EB8303CD
:102A30005B68013B00E03B23F5694FF0010905EBC2
:102A4000450507EB850567466B60089002B35FEAB2
:102A5000C8721DD1326A022A1AD1F269604D02EBA6
:102A6000420205EB820292683A2A07DCF26902EB25
:102A7000420205EB82029268013200E00022F36913
:102A80004FF0010903EB430305EB83039A600890C1
:102A9000002920D55FEA88711DD4316A02291AD134
:102AA000F1694F4B01EB410103EB81018968012979
:102AB00007DBF16901EB410103EB81018968013911
:102AC00000E03B21F2694FF0010902EB420203EB07
:102AD000820291600890780702D518F004006BD04C
:102AE000B9F1000F07D1F0690499814203D1306A2E
:102AF000059981425AD070694FF0FF31069701F075
:102B000001FDFEF7B2FCDDF81C80DFF804914FF008
:102B1000000B3027782F3FD0F06983454FF000003D
:102B200008BFFF20FEF7F4FBF06958F8081C58F8BE
:102B3000042CD8F8003001AD0EC5D9F8001036A32A
:102B400036A20091834533A008BF034620462021CA
:102B5000FDF772FB002039465246FEF73BF9FEF7BF
:102B6000EDFCF06983450FD1306A28B1306A5A25EF
:102B7000012808BF3C2500E01E25FEF733FD28464E
:102B800039465E22FEF7D4F808F10C0809F1140961
:102B900018370BF1010BBDE77069FEF74DFCF069CA
:102BA0004FF0010B0490306A069F0590FEF7A0FCE1
:102BB0004FF00009B8465CE600204FF0FF3130735B
:102BC000706901F09FFCFEF750FCFEF79BF87069FE
:102BD000FEF732FCFEF7C6FC11B0BDE8F08F00BF77
:102BE00024000010B0000010EC600000D50D0000C3
:102BF000552F443A53656C65637420416374204CCF
:102C00002F523A4669656C640000000001610000C3
:102C1000D85F00003E2000002020000025732573AF
:102C20003A253032643A253032643A253032640035
:102C300082490968890B484368B100BF013800BF69
:102C400000BF00BF00BF00BF00BF00BF00BF00BF8C
:102C500000BF00BFF0E770472DE9F04F89B0DFF803
:102C600008A104464FF0FF31DAF8140001F04AFCE5
:102C7000FEF7FBFB9AF8000001283BD1601C39D01D
:102C8000DAF81800844268D0FEF7EFFBFEF710FC7C
:102C9000DFF8D88004EB44004FF03009344D09EBE5
:102CA000C006002031464246A847324F324A23210F
:102CB00057F824300DF101042046FDF7BDFA00203D
:102CC00031462246A8472D48FEF718FBDAF81800CF
:102CD0004246FEF7FBFBDAF81800294A232157F891
:102CE00020302046FDF7A8FADAF818002246FEF751
:102CF000EDFB32E0FEF706F8FEF7DAFB21A200203A
:102D000000210026FEF766F81C48DFF87480DFF823
:102D10006890184F30240DF101058346D82C19D046
:102D2000DAF818004A46864208BF424657F826306D
:102D300028462321FDF780FADAF8180086426FF062
:102D40007F4008BF5846FEF7D9FAFEF7EDFB18346E
:102D50000136E3E701208AF80000DAF81400FEF7F4
:102D60006BFB09B0BDE8F08FB000001030600000D0
:102D7000D50D000014600000DD600000C0C0C00080
:102D8000DB600000477265656E686F757365204D86
:102D9000656E75000648016841F4A821016033485A
:102DA000016841F4805101600248034901607047A5
:102DB00004C0024000400340070420000A480C4BB6
:102DC000016841F030410160016A41F00401016293
:102DD00006490A681A400A600A6C1A400A640168C7
:102DE00021F0F2610160704720C009200CC0024050
:102DF000FF3CC0FF80B5FFF7CDFFFFF7DFFF00F01E
:102E000021F8BDE8804000F001B800001748042216
:102E1000016841F0040101600748022101600021BE
:102E20008160064909680139416103210161044952
:102E30000A6001210160704704800040000000101A
:102E400000E100E00948016841F00801016008481C
:102E5000016841F05001016006488321017300219F
:102E6000017161210170032101737047C4C00F40DB
:102E700000C0024000C0004082B0FEF7A1FFFFF793
:102E8000B9FF012001F092F92A4C2061012001F0E4
:102E90008DF900256061032D09D001200021032256
:102EA00001F09DF904EB85010135C863F3E7E06BA0
:102EB000FEF79FFB002501F0EBF91F48214C01268E
:102EC0001EA1FEF75EFB204820A1FEF75AFB214819
:102ED00021A1FEF756FB224822A14FF400720023E5
:102EE000CDE90065A047DFF88880DFF890A00FF2F9
:102EF000840923A74FF0000BBBF1030F17D01B4829
:102F000049464FF48072CDE9006500EB0B04404662
:102F1000234601F0B3FB504639464FF480722346F6
:102F2000CDE9006501F0AAFB0BF1010BE4E701F02C
:102F30002DF8FEE7B00000106D39000053656E7388
:102F40006F7200007D460000753C000055415254F0
:102F50005F545800AD3B0000554152545F52580039
:102F6000892F00004D656E750000000010000010F4
:102F7000D93000004D6F6E69746F7200E126000059
:102F8000436F6E74726F6C0082B0FFF717FFFDF72E
:102F900035FF4548FEF7B8F9FEF7E4FA434EB46949
:102FA00001F0BEFB054642F2117B0FF204190FF24D
:102FB000141A4FF00108019400F0B0FC044601F02F
:102FC000AFFB07464FEAC87034B938B9642000F047
:102FD0006FFF4FF00008EFE7E0B13D46781B584522
:102FE00022D37069FEF78CFA00204FF00008FEF73C
:102FF00085F9FDF787FE6FF07F40FEF789F9FEF750
:103000004EFA002090215246FDF7E4FE7069FEF76B
:1030100013FAD1E7FEF7A6FA4FF4967000F048FFD6
:103020004FF001083D46C7E7E00705D0B06900282A
:1030300002DD4FF0FF3005E0A00708D5B069062893
:1030400005DA0120B1690844B061019C24E0600701
:10305000019C1ED5B069062818D8DFE800F0040FDF
:10306000090B0712150000F097FC0FE0022002E0A8
:10307000002000E00120FFF70DF907E0FFF7F4F969
:1030800004E0FEF7CDFF01E0FFF7A2FB01F048FBF3
:103090000546B069A04203D02046FFF7DDFDB469C4
:1030A000FEF726FA85E700BFC85F0000B0000010F9
:1030B000202020534C454550204D4F444520202092
:1030C00000000000507265737320616E79206B659B
:1030D000792E2E2E0000000004781149114EDFF8E1
:1030E000488004EB840006EB840701EB8000051D9B
:1030F0003069FEF705FA6CB1386B296809688842B7
:1031000002DCF86BFEF798F93069FEF795F9FEF7E7
:10311000D9F9EDE7306BD8F800108842F1DAF3E71F
:10312000D85F0000B00000101800001010B5064C69
:10313000207808B1012010BD01F0E6FA01280EBF89
:1031400000200120207010BDC4040010F8B5934C7D
:1031500005460E4667692068043000F0D3FD681C00
:1031600008D13EB154F8500B011D2046BDE8F8408F
:1031700000F016BE2068ED19456006D3E0692168AD
:103180000431BDE8F84000F0F4BDA06921680431C5
:1031900000F0EFFDE06A854238BFE562F8BD00BF90
:1031A0002DE9F041FEF7F6F9E54FF8680130F860D7
:1031B000386840B1386948BBE06A3968C96A8142F9
:1031C00098BF3C6022E03C60F86801281ED1744E34
:1031D0000025B5F58C6F04D0701900F0BCFD1435D6
:1031E000F7E7DFF86C801B4D4046A84708F114064E
:1031F0003046A84707F16400A84707F13C00A847FC
:1032000007F15000A847C7F81880FE617868396A4E
:10321000013060647860E06A8842614988BF386242
:10322000FEF77DF9211D00F0BBFD00F0D3FD3869EC
:1032300058B1E06A3968C96A814206D25948FEF736
:10324000BEF9BFF34F8FBFF36F8FBDE8F08100BFB2
:1032500054020010573D00007CB500F0ADFDD84E83
:103260003068A0B906F11404204600F074FD06F1A0
:103270002805284600F06FFD0020074A074BC6E9E5
:10328000024510210090052000F0C0FF3060BDE82D
:103290007C4000F09FBD00BFC50400101805001061
:1032A000026C72B110B5D0E902431344C360A3426B
:1032B000BDE8104024BF0368C36008461946FDF707
:1032C000ADBA704770B51546866B026C0446CAB13C
:1032D00005B3E068FDF7A2FAE268206C2168121AD3
:1032E0008A42E26003D2A16840420844E060002EB6
:1032F000304618BF0120A91EB1FA81F149090840E2
:10330000361A13E02068002580B9A06801F066FA3B
:10331000A5600CE06068FDF781FAD4E90101226C38
:1033200010448842606001D3206860600020711CF6
:10333000A16370BD10B5044690F85900012803D070
:1033400038B9206B00F050FD2046BDE8104000F079
:103350004BBD10BD7A4D124E124F4FF08058A868E9
:1033600090B100F029FDA86CC468201D00F0CAFCD3
:10337000E8680138E860A8680138A86000F02AFD14
:103380002046FFF7D7FFEAE730680228E7D3C7F8FF
:103390000080BFF34F8FBFF36F8FE0E7A0010010F5
:1033A0006805001004ED00E038B100210022002380
:1033B0000160C0E9021100F06BBF7047B0B5049D19
:1033C00000291C46C5E90F0108BF2A4628460121ED
:1033D0002A6000F027FF85F84C40B0BD2DE9F0478A
:1033E0000A9C82460F4616469100A5229846206BFD
:1033F000FCF77BFF206BDDE90859002100EB86001C
:10340000043820F0070604F1340057B1102904D025
:103410007A5C42540131002AF8D1002084F843003C
:1034200000E001700027372D28BF3725C4E9135766
:10343000E562201D00F09AFC04F1180000F096FCF3
:10344000C5F13800676551464246A061304684F8B0
:1034500058706462246100F037FA2060B9F1000FFF
:1034600018BFC9F80040BDE8F087000070B5104BE8
:1034700003F11802114612688242FBD34D6844687A
:103480004E19864202D12C4408464C6005199542DB
:1034900001D0134606E05B689A4203D0D2E90032BD
:1034A000224442600360814218BF086070BD00BFC3
:1034B0008001001010B50C460146006141F8044F30
:1034C000944206D9A94808309A4208D29C4206D3B1
:1034D0000AE08069D21A824206D2A4480C30006801
:1034E00000F047FC002010BD012010BD10B5FDF715
:1034F000CCFFA06BB0FA80F0440900F06BFC2046D2
:1035000010BD000006480068006880F3088862B6B5
:1035100061B6BFF34F8FBFF36F8F00DF00BF0000B6
:1035200008ED00E0E7488169096821B18169C9684F
:10353000C968496801E04FF0FF31C162704700BFC0
:10354000A00100102DE9FC47804601F0E9F8874D05
:1035500081464FF0000A2869814529D2A868016890
:1035600009B3C068C6680768341D204600F0CAFB6E
:10357000316A3046884796F828004007EED5B06992
:103580003844B84206D97060A8682146366100F018
:10359000F0FBE3E7304600213A460023CDF800A0D7
:1035A00001F01AFADAE7E9684FF0010AC5E90210FA
:1035B0004846C5F81090C8F800A0BDE8FC8700BFD9
:1035C0001802001081B0002000904FF0100080F32E
:1035D0001188BFF36F8FBFF34F8F00980028FCD086
:1035E00001B0704786B0614F02AC4FF0000B01ADE7
:1035F000B86806681EB1C068D0F8009001E04FF0CE
:10360000000900F0F9FC2046FFF79CFF8246029873
:1036100010B101F05FF9A0E01EB1D14519D9002227
:1036200004E0F8680068B0FA80F042093868A9EB55
:103630000A0100F01BFC01F04DF9002840F08D80DC
:103640004B484FF080510160BFF34F8FBFF36F8F36
:1036500083E001F03FF9B868C068D0F80C8008F149
:10366000040000F04FFB98F82800410704D400F054
:10367000FA0088F8280011E0D8F8180052464B46A6
:1036800000EB09014046FFF715FF38B14046002125
:103690004A460023CDF800B001F09EF9D8F820107A
:1036A0004046884759E00298B0F1FF3F06DCDDE96B
:1036B000032005999047029800284ED4049E706913
:1036C00010B1301D00F01EFB2846FFF73BFF0246FD
:1036D0000298092841D8DFE800F0050505322439B1
:1036E0000505322496F82800039B40F0010086F877
:1036F0002800B069C1183046FFF7DCFE68B3316AB4
:103700003046884796F82800400726D5B0690399C7
:103710000023CDF800B042183046002101F05CF9DA
:103720001BE096F828100398134641F00101B061A0
:1037300086F8281081183046FFF7BCFE0DE096F899
:10374000280000F0FE0086F8280006E096F8280021
:103750008107F6D4304600F047FB38682146002246
:1037600000F054FE00287FF49EAF41E718020010DD
:1037700004ED00E070B5FDF788FE94F8456004F1B3
:10378000240570B2012808DB286830B1FDF7C4FEBB
:1037900008B100F0A9FB013EF3E7FF2084F84500E3
:1037A00000F018FB00F008FB94F8446004F11005E9
:1037B00070B2012808DB286830B1FDF7ADFE08B112
:1037C00000F092FB013EF3E7FF2084F84400BDE8DF
:1037D000704000F0FFBA0000F8B5044600F00CFCA1
:1037E000314D686808B129781AE0304900204A074D
:1037F00001F5005301F1070218BF22F00701C5E9E6
:10380000061023F00702A2F108036B6042E90200F0
:103810005A1A68684A60C5E90222086001212970C5
:10382000B4F1FF3F00DCC9BBC4B3610724F007015A
:1038300001F1100208BF04F108027AB3AB689A42A2
:103840002CD82E4656F8184F6168374626469142C6
:1038500002D23468002CF7D186421FD030683C6811
:1038600038608F1A112F06D3B01847607260FFF7C7
:10387000FDFDAB687168EA680834581AA860904288
:1038800038BFE8602878002818BF41F000410020C8
:10389000C6E9000128690130286100E0002401F038
:1038A00019F82046F8BD00BF80010010C8090010BB
:1038B0000448016819B101680A6D01320A6500689F
:1038C000704700BFA001001010B5064C4FF0807388
:1038D00021F0010140F8202C40F8043C40E903416C
:1038E000403810BDC53500000B490A6822F00702B8
:1038F0000A60012202FA00F00A68104308600868B2
:1039000040F0807008604868B0F1FF3FFBDC486819
:10391000C0F30B10704700BF0040034010B50D48C6
:10392000042401680268036804EA93430224C1F393
:10393000C05104EA12621144026800681944082365
:1039400003EA52521144102202EA9050084480F0D7
:103950001F0010BD34C00920BF4902782AB10B7D79
:103960009B06FCD50A700130F7E77047E44C2069EC
:10397000FDF7C6FD0025032D07D0E8B204EB850650
:10398000FFF7B2FF30630135F5E72069FDF754FD1D
:10399000FDF798FDEBE700BF2DE9F04F8DB0404DEE
:1039A0004FF0FF31686900F0ADFDFDF75EFDFDF7FA
:1039B000A9F96869FDF71DFE002700F069FCDFF832
:1039C000E480DFF8009105AC05F1300044A60390D7
:1039D00068694FF0FF31049700F094FDFDF745FD55
:1039E0000020C0476B6AA86AE96A2FA2CDE90001EE
:1039F00020462021FCF720FC314A00203021C84716
:103A0000002030212246C8472869FDF779FDFF20B4
:103A1000C047002018212CA2C8470020C047DDF86D
:103A20000CA0DFF8B8B06027A82F0DD05AF8040B0F
:103A30005BF8143B2021324600902046FCF7FCFB4B
:103A4000FDF77CFD1837EFE7FDF7CCFD0020A8213E
:103A500025A2FDF7BFF92869FDF7EEFC6869FDF7BF
:103A6000EBFCFFF75BFFFDF773FD632805D97807D3
:103A700003D5049810F0040002D0FDF723FDA7E75A
:103A80006869FDF73DFDFDF7F0FCFDF73BF968695E
:103A9000FDF7D2FCFDF766FD0DB0BDE8F08F00BF6D
:103AA000B00000101113000054696D653A202530F4
:103AB00032643A253032643A253032640000000026
:103AC00030600000D50D0000446973706C6179208E
:103AD00053656E736F72204461746100D85F00009B
:103AE00025733A2025640000507265737320636566
:103AF0006E74657220746F2072657475726E00004A
:103B00001CB58DF8070007480DF106010122C369B5
:103B1000846A0DF107009847A047C007FCD19DF8C3
:103B200006001CBD9C4A0000F8B50546481E0C4620
:103B300009210026B0FA80F042090020FDF756FC6A
:103B40000727002F22D4002007210022FDF736FC92
:103B50000120FFF76DF8012C08D125FA07F00921A3
:103B600000F001020020FDF729FC05E000200921FA
:103B7000FDF71AFCB8400643002007210122FDF79B
:103B80001DFC0120FFF754F8013FDAE7F0B2F8BD61
:103B9000334900EB80001C2301EB80000169C06801
:103BA0004A69104208BF1823C850704798B02A4984
:103BB000DFF84CA108AC04AD6F460FF2B0094FF02E
:103BC000010B0026087DC00740D008780A2804D0E1
:103BD0003F2E02DAA055013638E000201F49A055DB
:103BE00000260898884231D14FF00008B8F10C0F38
:103BF0002BD01B4908EB88001AA20E58284610212A
:103C00003346FCF719FB384610214A463346FCF789
:103C100013FB20462946FCF7EFFD38B10AEB0800FC
:103C2000FDF7E7FCC0F854B0FDF765FC20463946C7
:103C3000FCF7E2FD30B10AEB0800FDF7DAFC416564
:103C4000FDF759FC08F10408D0E700260A2000F02F
:103C50002FF90149B6E700BF00C00040434D443A88
:103C6000D85F000025733A4F4E00000025733A4F8D
:103C70004646000092B00D4E02AC0DA53069FDF72E
:103C80003FFC336B706BB16B2A46CDE900012046D7
:103C90004021FCF7D1FA3069FDF7CEFB2046FFF753
:103CA0005BFE40F6B83000F003F9E7E7B000001023
:103CB00054454D503A25647C4D4F4953543A256440
:103CC0007C4C494748543A25640A00000C48C16AB4
:103CD0000131C162C16A3C2910DB0021C162826AE4
:103CE00001328262826A3C2A08DB8162416A0131C8
:103CF0004162416A1829A4BF00214162704700BF98
:103D0000B0000010D0E9013201699A6053604B683D
:103D1000834208BF4A600A68013A0A6000220261D1
:103D200008687047034B03608020106002480860F9
:103D3000704700BFC82B0010C8290010034B036058
:103D40005020106002480860704700BF642D0010CA
:103D5000242C001070470021024601604FF0FF3113
:103D600042F8081FC0E90322426070470021016148
:103D70007047B0B50C68621C07D000F1080213460A
:103D800052681568A542FAD901E003695A68916042
:103D9000C1E9012308615960016801310160B0BDCA
:103DA00010B50268436808619C6801324B608C6002
:103DB00061600260996010BD4FF0100080F31188BF
:103DC000BFF36F8FBFF34F8FED4801680131016082
:103DD000704700BFEA4801680139016000D07047B0
:103DE000002080F31188704770B570B1114E044601
:103DF00050F8040C3178002918BF4FF000410142FF
:103E000003D0A4F108052A6802B170BD884344F8C4
:103E1000040C00F0F1F854F8040CB1680844B060E8
:103E20002846FFF723FB706901307061BDE87040E0
:103E300000F050BD80010010074800214FF47A7255
:103E40000160816005490968B1FBF2F10139416007
:103E500007210160704700BF10E000E00000001083
:103E600090F8461001B17047FFF7BEBF70B5154618
:103E70000E46FDF70AFB94F84400FF2804BF00201B
:103E800084F8440094F84500FF2804BF002084F81B
:103E90004500FFF79FFFA06B28B904F124003146CD
:103EA0002A4600F033F82046BDE87040FFF762BCB8
:103EB00080B550B172494A6A01324A620021FFF767
:103EC00045F900F007FD00B180BDF048FDF777FB34
:103ED000BFF34F8FBFF36F8F80BD00BF68498A6B00
:103EE000026049694160704765480121016370477C
:103EF00010B50C46624909681831FFF73AFF2046B1
:103F00000121BDE81040FFF721B900BFB0B50D4653
:103F10005B49144609681831FFF742FF002C18BFAF
:103F20004FF0FF3528462146BDE8B040FFF70EB9F7
:103F300070B5C8B10446C06AE26C8A4288BF1146B7
:103F4000884211D0226D012A0ED1A269E162002AB5
:103F500002D4C1F13801A1614A4E00EB80006169D1
:103F600006EB8000814200D070BDFDF77AFA44492B
:103F7000E06A0A6A904288BF086200EB8000294626
:103F800006EB8000BDE87040FFF70ABF10B586B0B1
:103F90000024CDE9044405A804A903AAFFF7C2FE42
:103FA000DDE9032005990023CDE900400F48029187
:103FB0000FA100F08FFB324CA062A0B100F0E2FC38
:103FC000012810D14FF0100080F31188BFF36F8FDC
:103FD000BFF34F8F4FF0FF30E062012020610020DF
:103FE000606100F0B3F806B010BD00BF55330000AB
:103FF00049444C45000000002148416A01314162BA
:10400000704700BF10B51E4C606A10B101202063DC
:1040100010BD002020632068006B0168B1F1A53F4E
:104020000BD14168B1F1A53F07D18168B1F1A53F3E
:1040300003D1C068B0F1A53F04D0206821683431B5
:10404000FFF788FE206A0F4A00EB8001013002EB87
:10405000810101F11802A2F1140152F8182C013863
:10406000002A0A46F7D00A680B46526804C39342F6
:1040700001D152680A60D1682160206210BD00BF82
:10408000A001001068050010F8B504462E48FDF7A1
:1040900090FA702003218DF80340ADF801000DF176
:1040A0000100B847B047C007FCD113200021A84742
:1040B000F8BD00BF1CB540BA0221ADF80600224889
:1040C0004269846A0DF106009047A047C007FCD101
:1040D0001CBD00BF80B51C480121426A13209047D7
:1040E0007220BDE88040FFF70BBD00BFF8B58DF82A
:1040F0000300000A0C4670218DF8020012488DF86A
:104100000110FDF756FA0DF101000321B847B04741
:10411000C007FCD113200021A847722001218DF88F
:1041200003408DF80100200A8DF802001320A847F3
:104130000DF101000321B847B047C007FCD113209F
:104140000021A847F8BD00BF9C4A000080B50B487D
:10415000016841F47F010160016841F07F41016025
:10416000FFF76AFE064800210160FFF7CBF9FFF771
:1041700049FFFFF727FA002080BD00BF20ED00E0D7
:104180004800001080B54FF0100080F31188BFF395
:104190006F8FBFF34F8F00F0C7FA18B1D8484FF0B8
:1041A00080510160002080F3118880BD10B5024667
:1041B0000120002100F013F80446FFF7F5F820462F
:1041C00010BD1CB50C4600900120002100222346A2
:1041D00000F01CF82046FFF7E7F820461CBDF8B5B4
:1041E0000746484314460D465030FFF7F5FA064699
:1041F00050B1002006F150022946234686F84600B9
:1042000038460096FFF7DAF83046F8BDBCB51C46D4
:1042100033B1069B012584F846500094FFF7CEF891
:104220002046BCBD70B50D46FDF72FF90020A063F8
:10423000FF2084F84400D4E90F23216884F8450066
:10424000501E03FB021600FB0310C4E90116E060D8
:1042500004F110004DB1FFF77EFD04F12400FFF7DB
:104260007AFDFFF7B7FD012070BD01680029F8D085
:1042700000F00CFB0028F4D0EE484FF080510160B4
:10428000BFF34F8FBFF36F8FEBE700BF04ED00E08C
:104290002DE9F04F85B01D46044600F1100B4FF09C
:1042A00001080DF1080A0DF1100901910492FFF7C0
:1042B00083FDA06BE16B88424AD3022D48D004985D
:1042C00000285AD05FEAC87002D05046FFF706FEB9
:1042D000FFF780FDFFF790FEFFF76EFD94F84400B6
:1042E000FF2804BF002084F8440094F84500FF280C
:1042F00004BF002084F84500FFF76CFD5046494696
:1043000000F09AF900283BD1FFF756FDA76BE66B4A
:10431000FFF760FDB74214D104995846FFF7E8FD56
:10432000FDF79CF800F0D6FA4FF000080028BED147
:10433000C0484FF080510160BFF34F8FBFF36F8FC4
:10434000B5E7FDF78BF800F0C5FA4FF00008AEE7CF
:10435000019920462A46FEF7B5FF54F8241FA9B15B
:10436000204600F093FAD0B1B2494FF08050086077
:10437000BFF34F8FBFF36F8F11E0FFF72BFD03E00B
:10438000FDF76CF800F0A6FA00200BE038B1A9495F
:104390004FF080500860BFF34F8FBFF36F8FFFF770
:1043A00019FD012005B0BDE8F08F00BFF8B5054646
:1043B000EFF311864FF0100080F31188BFF36F8F79
:1043C000BFF34F8F1446A86BEA6B904201D3022BC8
:1043D00018D195F84570A86B1A462846FEF772FF6B
:1043E000FF2F0AD155F8240F50B1FDF795F801467B
:1043F000012044B139B1206005E0781C85F8450002
:10440000012000E0002086F31188F8BD2DE9FE4F61
:1044100002928846044600F1240901266F464FF0B7
:10442000000A02ADFFF7C8FCD4F838B0BBF1000FAA
:1044300047D1029800285CD0F00702D03846FFF739
:104440004DFDFFF7C7FCFFF7D7FDFFF7B5FC94F86C
:104450004400FF2808BF84F844A094F84500FF28D2
:1044600008BF84F845A0FFF7B5FC3846294600F0A0
:10447000E3F848B1FCF7F2FF00F02CFAFDF77EF804
:1044800000260028CED037E0FDF778F898B10299E1
:104490004846FFF72DFDFCF7E1FF00F01BFA002670
:1044A0000028BFD163484FF080510160BFF34F8FA8
:1044B000BFF36F8FB6E7FCF7D1FF00F00BFA0026D1
:1044C000B0E720464146FEF7EBFEABF10100A063EA
:1044D00054F8100F58B1204600F0D8F938B15549BA
:1044E0004FF080500860BFF34F8FBFF36F8F0126EE
:1044F00000E00026FFF76EFC3046BDE8FE8F00BFEF
:1045000004ED00E02DE9FE4F044600F1240849487F
:10451000029101254FF0000B6E4602AF4FF00009EB
:104520008246FFF749FCA06B002851D10298002871
:1045300079D0E80702D03046FFF7D0FCFFF74AFCFD
:10454000FFF75AFDFFF738FC94F84400FF2808BF36
:1045500084F844B094F84500FF2808BF84F845B0BB
:10456000FFF738FC3046394600F066F848B1FCF7F2
:1045700075FF00F0AFF9FDF701F800250028D0D055
:104580003EE0FCF7FBFF28B9FCF768FF00F0A2F95A
:104590000025C6E7206838B9FFF70EFCA06800F0D8
:1045A0003DF98146FFF716FC02994046FFF7A0FC53
:1045B000FCF754FF00F08EF900250028B1D14FF030
:1045C0008051CAF80010BFF34F8FBFF36F8FA8E779
:1045D0000138A063206810B9FFF76AF9A06054F8A9
:1045E000100F58B1204600F051F938B14FF080500B
:1045F000CAF80000BFF34F8FBFF36F8F012413E0A1
:10460000B9F1000F09D0FFF7D7FBD8F8000030B19F
:10461000206B0068C0F1380102E0002406E00021B0
:10462000A068FFF785FC0024FFF7D4FB2046BDE817
:10463000FE8F00BF04ED00E0F8B50D46FCF7AAFFC1
:10464000CD48426929684B1C0FD0D4E90063876BC1
:10465000B74201D09A420CD2D21A914207D9891A94
:104660002960816B216040696060002402E00020C5
:1046700028600124FFF7AEFB2046F8BD2DE9FE437C
:1046800007469000984615468946FFF7A5F8E8B119
:1046900006465C20FFF7A0F8A8B10446DDE90A1041
:1046A0000022434684F8592026632A460294CDE925
:1046B000001038464946FEF791FE2046FEF770FD91
:1046C0000120BDE8FE833046FFF78EFB4FF0FF3040
:1046D000BDE8FE83F0B585B00B9E002586B10C9C2D
:1046E00074B102270A9D266384F8597004AE0294BF
:1046F000CDE90056FEF772FE2046FEF751FD049DFF
:10470000284605B0F0BD00009B48016929B1406A08
:10471000B0FA80F04009400070470120704700BFA8
:1047200095484069704700BF2DE9F843924E706A82
:1047300020B1706B0024013070634BE0706910F1A0
:104740000109C6F8149008D3B069F169B161F0614C
:10475000B06B0130B063FEF7E5FEF06A00248145DE
:104760002AD3DFF81882B069006810B3B069C06856
:10477000C7683D4655F8040F81451CD32846FFF70E
:10478000C1FAB86A18B107F11800FFF7BBFAF86A66
:10479000316A884288BF306200EB8000294608EB0E
:1047A0008000FFF7FDFAF86AFCF718FF28BF012424
:1047B000D9E74FF0FF30F06230687049C06A00EB13
:1047C000800051F82000012888BF0124306B0028A8
:1047D00018BF01242046BDE8F88300BFD8B1B0B5AA
:1047E0000446C26AD0E91330411E00209A42216576
:1047F00010D079B9FCF735FEE06CC0F13801E06209
:10480000A1615D490A6A904288BF08625B49FCF772
:104810003FFE0120B0BD0020704700BFD0B1F8B509
:10482000554E0446C06AFCF7D9FE15D2A16900298D
:1048300004D43168C96AC1F13801A1614F4F00EB5E
:104840008000616907EB800081420DD03068C06A4A
:10485000E06219E000207047E16C3068C26A002015
:10486000914238BF0120F8BDFCF7FBFD3068C06AFB
:10487000E062316A884288BF306200EB80002946DE
:1048800007EB8000FFF78CFA0120F8BD70B5C06817
:10489000C66806F11804FCF7A9FE374D686A10B126
:1048A00005F164000AE0341DFCF7A0FEF06A296AF5
:1048B0008842324988BF2862FCF731FE2146FFF763
:1048C0006FFAF06A2968C96A884292BF0020012005
:1048D000286370BD2DE9F041FFF76EFA264D686A36
:1048E00001386862686A28B10024FFF773FA20462D
:1048F000BDE8F081E8680028F6D0204F00264FF090
:104900000108686EE0B1286FC66806F11800FFF76D
:10491000F9F9341DFCF76AFEF06A296A884288BFFB
:10492000286200EB8000214607EB8000FFF738FA91
:10493000F06A2968C96A884228BFC5F83080E0E774
:104940000EB1FEF7EFFD6C6B44B10126FFF7ECFEF4
:1049500000B12E63013CF9D100206863286B002868
:10496000C2D007484FF0805101240160BFF34F8F40
:10497000BFF36F8FB9E700BFA001001068050010FA
:1049800004ED00E010B586B0FEF766FC0E4C00208A
:104990002168B1B1CDE9040005A804A903AAFFF775
:1049A000CDF9DDE9032005992823CDE9003007483A
:1049B000029107A10023FFF78DFE6060002818BF59
:1049C000012006B010BD00BF18020010E535000040
:1049D000546D722053766300BFB50F4D04462868AE
:1049E00088B105298DE816000FDCFFF78DFE014622
:1049F0002868022919BF69460022089A69460023DF
:104A0000FFF746FC06E0002004E01A466946002352
:104A1000FFF7CCFC04B0B0BD1802001030380A28F3
:104A200001D20120704700207047000010B5002916
:104A30000AD00878002807D005487844FCF798F891
:104A4000002801D0002010BD0248784410BD0000AD
:104A500006170000FE160000000000000000000025
:104A600030313233343536373839414243444546A4
:104A7000403058003031323334353637383961629E
:104A800063646566403078000400000800000000A0
:104A9000000000020001000010000000711D000075
:104AA0006D1D00004D1B0000351D00008D1B00001A
:104AB000AD1C00006D1C0000ED1C0000611A000020
:104AC00081170000711A00000000000000000000C3
:104AD00000000000000000000000000000000000D6
:104AE00000000000000000000000000000000000C6
:104AF0000000000000000000000080018001800133
:104B0000800180018001800180018001800180019D
:104B10008001800100000000800180010000000091
:104B2000000000000000000000000000CC00CC00ED
:104B3000CC00CC00CC00CC00000000000000000045
:104B40000000000000000000000000000000000065
:104B50000000000000000000000000000000000055
:104B600000000000600C600C600C30063006FE1F78
:104B7000FE1F300638071803FE1FFE1F1803180318
:104B80008C018C018C01000000008000E003F80F14
:104B90009C0E8C1C8C188C009800F801E007800E8D
:104BA000801C8C188C189C18B80CF00FE003800047
:104BB00080000000000000000000000000000E184F
:104BC0001B0C110C11061106110311039B018E0120
:104BD000C038C06C60446044304430441844186CA1
:104BE0000C380000000000000000E001F00338076E
:104BF000180618063003F001F000F8009C310E335F
:104C0000061E061C061C063FFC73F0210000000077
:104C10000000000000000000000000000C000C007C
:104C20000C000C000C000C00000000000000000054
:104C30000000000000000000000000000000000074
:104C400000000000000000000000000200038001DE
:104C5000C000C00060006000300030003000300054
:104C6000300030003000300060006000C000C00044
:104C70008001000300020000000020006000C0006E
:104C80008001800100030003000600060006000604
:104C900000060006000600060003000380018001F4
:104CA000C0006000200000000000000000000000C4
:104CB00000000000C000C000D806F807E001300383
:104CC00038070000000000000000000000000000A5
:104CD00000000000000000000000000000000000D4
:104CE0000000000080018001800180018001FC3F04
:104CF000FC3F8001800180018001800100000000F4
:104D000000000000000000000000000000000000A3
:104D10000000000000000000000000000000000093
:104D20000000000000000000000080018001000180
:104D300000018000000000000000000000000000F2
:104D40000000000000000000000000000000000063
:104D5000E007E00700000000000000000000000085
:104D60000000000000000000000000000000000043
:104D70000000000000000000000000000000000033
:104D800000000000000000000000C000C0000000A3
:104D900000000000000000000000000C000C0006F5
:104DA0000006000600030003000380038001800169
:104DB0008001C000C000C000600060000000000072
:104DC00000000000000000000000E003F007380EC3
:104DD000180C0C180C180C180C180C180C180C18B3
:104DE0000C180C18180C380EF007E0030000000037
:104DF0000000000000000000000000018001C00170
:104E0000F00198018801800180018001800180010A
:104E1000800180018001800180018001000000008C
:104E200000000000000000000000E003F80F180C74
:104E30000C180C1800180018000C00060003800164
:104E4000C000600030001800FC1FFC1F00000000C4
:104E500000000000000000000000E001F807180E4C
:104E60000C0C0C0C000C0006C003C007000C001852
:104E700000180C180C18180CF807E00300000000CC
:104E800000000000000000000000000C000E000FF9
:104E9000000F800DC00C600C600C300C180C0C0C5A
:104EA000FC3FFC3F000C000C000C000C000000005C
:104EB00000000000000000000000F80FF80F1800CC
:104EC00018000C00EC03FC071C0E001C0018001856
:104ED00000180C181C0C180EF807E0030000000066
:104EE00000000000000000000000C007F00F381CA8
:104EF000181818000C00CC03EC0F3C0E1C1C0C18EE
:104F00000C180C18181C380EF007E0030000000005
:104F100000000000000000000000FC1FFC1F000C4F
:104F200000060006000380038001C001C000E0000D
:104F300060006000700030003000300000000000B1
:104F400000000000000000000000E003F007380E41
:104F5000180C180C180C3806F007F007180C0C1871
:104F60000C180C180C18380CF80FE00300000000A7
:104F700000000000000000000000E003F007380E11
:104F80001C0C0C180C180C181C1C381EF81BE019F3
:104F90000018000C000C1C0EF807F00100000000C7
:104FA0000000000000000000000000000000000001
:104FB00000000000800180010000000000000000EF
:104FC00000000000000000008001800100000000DF
:104FD00000000000000000000000000000000000D1
:104FE00000000000800180010000000000000000BF
:104FF00000000000000000008001800100010001AD
:105000008000000000000000000000000000000020
:1050100000000000000000000010001C800FE003F2
:10502000F8001800F800E003800F001C00100000DA
:105030000000000000000000000000000000000070
:105040000000000000000000F81F00000000000049
:10505000F81F000000000000000000000000000039
:105060000000000000000000000000000000000040
:10507000000000000000000008003800F001C00738
:10508000001F0018001FC007F001380008000000D2
:1050900000000000000000000000E003F80F180C02
:1050A0000C180C180018000C000600038001C0004A
:1050B000C000C00000000000C000C00000000000F0
:1050C000000000000000000000000000E0071818C9
:1050D0000420C229224A11440944094409440922EE
:1050E0001113E20C024004201818E0070000000031
:1050F0000000000000000000000080038003C006E4
:10510000C006C006600C600C301830183018F83F2C
:10511000F83F1C700C600C6006C006C00000000068
:1051200000000000000000000000FC03FC0F0C0C5D
:105130000C180C180C180C0CFC07FC0F0C180C307D
:105140000C300C300C300C18FC1FFC070000000069
:1051500000000000000000000000C007F01F383809
:105160001C300C70066006000600060006000600F3
:10517000060006600C701C30F01FE0070000000005
:1051800000000000000000000000FE03FE0F060EFD
:10519000061806180630063006300630063006308F
:1051A000063006180618060EFE0FFE03000000006B
:1051B00000000000000000000000FC3FFC3F0C006D
:1051C0000C000C000C000C00FC1FFC1F0C000C0061
:1051D0000C000C000C000C00FC3FFC3F0000000029
:1051E00000000000000000000000F83FF83F180039
:1051F0001800180018001800F81FF81F18001800F1
:10520000180018001800180018001800000000000E
:1052100000000000000000000000E00FF83F3C78B4
:105220000E6006E007C00300030003FE03FE03C098
:1052300007C006C00EC03CF0F83FE00F00000000C1
:10524000000000000000000000000C300C300C30AA
:105250000C300C300C300C30FC3FFC3F0C300C3070
:105260000C300C300C300C300C300C3000000000D6
:1052700000000000000000000000800180018001AB
:105280008001800180018001800180018001800116
:105290008001800180018001800180010000000008
:1052A00000000000000000000000000600060006EC
:1052B00000060006000600060006000600060006BE
:1052C0000006180618063807F003E0010000000089
:1052D0000000000000000000000006300618060C68
:1052E000060606038601C60066007600DE008E0113
:1052F00006030606060C06180630066000000000CD
:105300000000000000000000000018001800180055
:1053100018001800180018001800180018001800CD
:105320001800180018001800F81FF81F00000000EF
:10533000000000000000000000000EE01EF01EF063
:105340001EF036D836D836D836D866CC66CC66CC81
:10535000C6C6C6C6C6C6C6C686C386C3000000008B
:10536000000000000000000000000C301C303C3049
:105370003C306C306C30CC30CC308C310C330C3356
:105380000C360C360C3C0C3C0C380C300000000089
:1053900000000000000000000000E007F81F1C38BB
:1053A0000E70066003C003C003C003C003C003C087
:1053B00003C006600E701C38F81FE00700000000F4
:1053C00000000000000000000000FC0FFC1F0C3873
:1053D0000C300C300C300C300C18FC1FFC070C008F
:1053E0000C000C000C000C000C000C000000000075
:1053F00000000000000000000000E007F81F1C385B
:105400000E70066003E003C003C003C003C003C006
:1054100007E006630E3F1C3CF83FE0F700C00000C9
:1054200000000000000000000000FE0FFE1F063814
:105430000630063006300638FE1FFE070603060655
:10544000060C06180618063006300660000000003C
:1054500000000000000000000000E003F80F1C0C3A
:105460000C180C180C001C00F803E00F001E00388C
:10547000063006300E301C1CF80FE007000000005C
:1054800000000000000000000000FE7FFE7F8001A1
:105490008001800180018001800180018001800104
:1054A00080018001800180018001800100000000F6
:1054B000000000000000000000000C300C300C3038
:1054C0000C300C300C300C300C300C300C300C30FC
:1054D0000C300C300C301818F81FE00700000000EA
:1054E00000000000000000000000036006300630ED
:1054F00006300C180C180C18180C180C380E300646
:105500003006700760036003C001C00100000000A6
:10551000000000000000000000000360C361C361E0
:10552000C3616633663366336633663366336C1B3A
:105530006C1B6C1B2C1A3C1E380E380E0000000031
:10554000000000000000000000000FE00C701830A8
:105550003018700C600EC00780038003C003E006A3
:10556000700C301C18180C300E6007E000000000B2
:105570000000000000000000000003C006600C30C6
:105580001C383818300C6006E007C0038001800129
:105590008001800180018001800180010000000005
:1055A00000000000000000000000FC7FFC7F0060A5
:1055B00000300018000C000600038001C0006000ED
:1055C000300018000C000600FE7FFE7F0000000087
:1055D00000000000000000000000E003E0036000A5
:1055E00060006000600060006000600060006000BB
:1055F00060006000600060006000600060006000AB
:105600006000E003E00300000000300030006000B4
:1056100060006000C000C000C000C00180018001C7
:1056200080010003000300030006000600000000E4
:1056300000000000000000000000E003E0030003A1
:105640000003000300030003000300030003000342
:105650000003000300030003000300030003000332
:105660000003E003E003000000000000C001C001EF
:1056700060036003600330063006180C180C00004D
:10568000000000000000000000000000000000001A
:10569000000000000000000000000000000000000A
:1056A00000000000000000000000000000000000FA
:1056B00000000000000000000000FFFFFFFF0000EE
:1056C000000000000000000000000C000C000C00B6
:1056D0000C000C000C0000000000000000000000A6
:1056E00000000000000000000000000000000000BA
:1056F00000000000000000000000000000000000AA
:1057000000000000F003F8071C0C0C0C000FF00F59
:10571000F80C0C0C0C0C1C0FF80FF018000000001B
:105720000000000000000000000018001800180031
:1057300018001800D803F80F380C18181818181883
:10574000181818181818380CF80FD80300000000A3
:105750000000000000000000000000000000000049
:1057600000000000C003F007300E180C18001800ED
:1057700018001800180C300EF007C00300000000DD
:1057800000000000000000000000001800180018D1
:1057900000180018C01BF01F301C18181818181813
:1057A000181818181818301CF01FC01B0000000033
:1057B00000000000000000000000000000000000E9
:1057C00000000000C003F00F300C1818F81FF81F7D
:1057D000180018003818301CF00FC0070000000037
:1057E00000000000000000000000800FC00FC0009B
:1057F000C000C000F007F007C000C000C000C0003B
:10580000C000C000C000C000C000C0000000000018
:105810000000000000000000000000000000000088
:1058200000000000E00DF80F180E0C0C0C0C0C0C16
:105830000C0C0C0C0C0C180EF80FE00D000C0C0CE2
:105840001C06F807F00100000000180018001800FE
:1058500018001800D807F80F381C1818181818184E
:105860001818181818181818181818180000000018
:1058700000000000000000000000C000C0000000A8
:1058800000000000C000C000C000C000C000C00098
:10589000C000C000C000C000C000C0000000000088
:1058A00000000000000000000000C000C000000078
:1058B00000000000C000C000C000C000C000C00068
:1058C000C000C000C000C000C000C000C000C000D8
:1058D000C000F8007800000000000C000C000C0074
:1058E0000C000C000C0C0C060C038C01CC006C00A2
:1058F000FC009C018C030C030C060C0C0000000047
:1059000000000000000000000000C000C000C00057
:10591000C000C000C000C000C000C000C000C00087
:10592000C000C000C000C000C000C00000000000F7
:105930000000000000000000000000000000000067
:10594000000000007C3CFF7EC7E383C183C183C1AC
:1059500083C183C183C183C183C183C100000000AF
:105960000000000000000000000000000000000037
:10597000000000009807F80F381C1818181818189D
:1059800018181818181818181818181800000000F7
:105990000000000000000000000000000000000007
:1059A00000000000C003F00F300C18181818181869
:1059B000181818181818300CF00FC0030000000059
:1059C00000000000000000000000000000000000D7
:1059D00000000000D803F80F380C18181818181811
:1059E000181818181818380CF80FD80318001800D1
:1059F000180018001800000000000000000000005F
:105A000000000000C01BF01F301C181818181818D0
:105A1000181818181818301CF01FC01B0018001890
:105A2000001800180018000000000000000000002E
:105A300000000000B007F0037000300030003000BC
:105A40003000300030003000300030000000000036
:105A50000000000000000000000000000000000046
:105A600000000000E003F003380E180C3800F003CB
:105A7000C007000C180C380EF007E003000000000F
:105A80000000000000000000000000008000C000D6
:105A9000C000C000F007F007C000C000C000C00098
:105AA000C000C000C000C000C007800700000000A8
:105AB00000000000000000000000000000000000E6
:105AC00000000000181818181818181818181818B6
:105AD000181818181818381CF01FE01900000000DA
